:100000000C9444030C946C030C946C030C94AE2479
:100010000C94D8240C9402250C946C030C946C035F
:100020000C946C030C946C030C946C030C946C0394
:100030000C946C030C946C030C946C030C946C0384
:100040000C944A310C946C030C94EA320C943833BF
:100050000C946C030C946C030C946C030C946C0364
:100060000C946C030C946C037C3C3E5E2B3D3F2F48
:100070005B5D3B2C2A225C004E6F206572726F72B2
:1000800020666F756E642E0043616E2774206F705A
:10009000656E20726F6F74206469726563746F722D
:1000A000792E00496E76616C696420666F726D61AD
:1000B000742C207265666F726D61742053442E003B
:1000C0004E6F20636172642C2077726F6E672063BD
:1000D0006869702073656C6563742070696E2C208C
:1000E0006F72205350492070726F626C656D3F00D3
:1000F00043616E27742061636365737320534420EA
:10010000636172642E20446F206E6F742072656686
:100110006F726D61742E006572726F723A200065A5
:1001200072726F723A20002C30580053442065726E
:10013000726F72436F64653A2030580000C201004C
:100140000100110011000C0000E100000A00250070
:100150002500210000960000190039003900360002
:10016000127A00001F004600460044008070000024
:1001700022004D004D004A00004B00003600750083
:1001800075007200403800004A009C009C009900F5
:10019000802500007200EC00EC00E900C0120000B5
:1001A000E900DA01DA01D70160090000D701B603DE
:1001B000B603B303B0040000B3036E076E076B070A
:1001C000580200006E07DC0EDC0ED80E2C01000079
:1001D000DC0EC11DC11DBE1D536C61766520312032
:1001E00064696D6D656E206265656E64657400445A
:1001F0006174656E20656D7066616E67656E004C3A
:10020000696768742070657263656E742076616CCE
:1002100075653A200053656E64206F70656E656485
:10022000205765627061676520746F20436C696553
:100230006E74005265696E697469616C6973696591
:100240007274005265696E69740053656E64207340
:1002500077697463682E68746D20746F20436C69CD
:10026000656E742062656361757365206F662072C8
:100270006571756573740053776974636820616C88
:100280006C204C6967687473204F4E005377697413
:10029000636820616C6C204C6967687473204F46FA
:1002A000460053656E6420736574636F6C6F722EC5
:1002B00068746D20746F20436C69656E7400466FBE
:1002C000756E642076616C75657300536574206388
:1002D0006F6C6F722073746174650053656E642077
:1002E000736574636F6C6F722E68746D20746F2009
:1002F000436C69656E740053656E6420496E646575
:10030000782E68746D20746F20436C69656E74007C
:100310005374617274206C6F6F702E2E2E002E2E0F
:100320002E2000200020002000204368616E6E65B2
:100330006C3A2000496E697420536C617665200028
:100340004F4B005374617274696E67204574686521
:10035000726E65742E2E2E20004D6178204C6967D8
:1003600068743A20004D696E204C696768743A20C1
:10037000004D61782054656D703A20004D696E2003
:1003800054656D703A200054727920746F20726544
:1003900061642073657474696E67732E2E2E00532A
:1003A000554343455353202D20466F756E64206995
:1003B0006E6465782E68746D2066696C652E0053D6
:1003C000554343455353202D2053442063617264A9
:1003D00020696E697469616C697A65642E00496E82
:1003E000697469616C697A696E672053442063613E
:1003F00072642E2E2E00525334383520696E697483
:10040000206F6B2E2E2E005374617274696E6720FC
:1004100052533438352E2E2E005374617274696E27
:1004200067204D61737465722E2E2E000D0A0046F2
:100430007265652053797374656D2D52414D3A2074
:1004400000426C7569653A2000477265656E3A2016
:10045000005265643A20004368616E6E656C3A2014
:10046000005361766564204C6967687476616C75C9
:1004700065733A003C2F7461626C653E003C2F74DA
:10048000643E3C2F74723E003C2F74643E3C7464A6
:100490003E003C2F74643E3C74643E003C2F746408
:1004A0003E3C74643E003C74723E3C74643E003CCE
:1004B00074723E3C74683E4B616E616C3C2F746894
:1004C0003E3C74683E526F743C2F74683E3C7468C6
:1004D0003E47656C623C2F74683E3C74683E426CDB
:1004E00061753C2F74683E3C2F74723E003C746111
:1004F000626C6520626F726465723D2231223E003B
:10050000416B7475656C6C652046617262776572CB
:1005100074653A00525334383520737769746368D0
:10052000696E67204C69676874204F4646005253D5
:1005300034383520537769746368696E67204C6975
:10054000676874204F4E0042656C6575636874750A
:100550006E6720697374204155530057656270615E
:1005600067653A204C69676874206F66660042656B
:100570006C6575636874756E672069737420414E8D
:1005800000576562706167653A204C69676874203E
:100590006F6E0042656C6575636874756E6720697F
:1005A00073742041555300576562706167653A2046
:1005B0004C69676874206F66660042656C65756398
:1005C0006874756E672069737420414E00576562C8
:1005D000706167653A204C69676874206F6E003CF3
:1005E0002F703E003C703E50657263656E74204C07
:1005F000696768743A20003C2F703E003C703E50A2
:10060000657263656E742054656D70657261747592
:1006100072653A200000000000240027002A000034
:10062000000000250028002B000000000023002609
:100630000029000404040404040404020202020267
:100640000203030303030301020408102040800196
:100650000204081020010204081020000000070016
:10066000020100000304060000000000000000007A
:10067000F8035A042907CC08C40A9D0CAF121A23A8
:100680000728A4340635002811241FBECFEFD8E078
:10069000DEBFCDBF13E0A0E0B1E0E2E5F0E702C0CD
:1006A00005900D92AA32B107D9F717E0AAE2B3E09C
:1006B00001C01D92AF36B107E1F716E0C6E8D6E0FB
:1006C00004C02297FE010E941838C037D107C9F72D
:1006D0000E946E350C941C380C940000FC01882795
:1006E0009927E89421912032E9F3293010F02E3037
:1006F000C8F32B3241F02D3239F4689404C00E94C3
:10070000D903820F911D219120532A30C0F31EF48A
:10071000909581959F4F08954AE253E00E94A70368
:100720000895FB01DC0104C08D910190801921F432
:1007300041505040C8F7881B990B0895FB01DC011C
:1007400002C001900D9241505040D8F70895009793
:1007500031F4DA018D919C91009709F40EC0DC010F
:10076000FB013D912191222319F03217C9F3FACFF1
:10077000332331F4DA011D921C92882799270895BA
:100780001197AF93BF93FB013D912191321771F403
:10079000332321F488279927119702C01E921196BE
:1007A000FA01A193B0839F918F910895222369F755
:1007B000EACF7AE0979F902D879F802D910D11248D
:1007C00008958AE061E00E9495328AE061E00E942B
:1007D00056328CB580618CBD8CB580648CBD8DE04B
:1007E00061E00E9456328BE061E00E94563208952B
:1007F0000F938CE293E060E040E020E000E00E9494
:10080000FA340F9108959C01FB0182819381A481A8
:10081000B581F90182839383A483B58317821682FD
:100820000895CF93DF93FB0101C031968081882327
:10083000E1F7EB01A0E0B0E020E030E021C06E3253
:1008400061F42F3F310509F07CF5FA01EA0FFB1F37
:100850002283119620E030E012C0C901E3E0880F46
:10086000991FEA95E1F7220F331F820F931F262F5E
:10087000332727FD309520533040280F391F21960C
:100880006881662319F0A430B105CCF22F3F310501
:1008900009F054F4A430B1053CF4A40FB51F12962E
:1008A0002C9321E030E002C020E030E0C901DF916C
:1008B000CF9108950F9382E393E060E040E020E061
:1008C00000E00E94FA340F9108952F923F924F92C8
:1008D0005F926F927F928F929F92AF92BF92CF92D0
:1008E000DF92EF92FF920F931F93DF93CF93CDB7D9
:1008F000DEB769970FB6F894DEBF0FBECDBF4C01CF
:100900008B011A010E9492312B013C01F8E0EF2E7D
:10091000F12CE80CF91C5801CC24DD2414C00E94F1
:1009200092316419750986099709A616B706C80693
:10093000D90618F42FEF3FEF0BC162E370E080E0BF
:1009400090E00E94A031C7010E94110D18161906EF
:1009500034F7F4012281338144815581818D928D58
:10096000A38DB48D8A879B87AC87BD8728173907ED
:100970004A075B0709F0EAC0858D968DC59709F097
:10098000E5C000C18E01025F1F4FC701B8014CE0F6
:1009900050E00E94C30CF801528143815B834A837B
:1009A000F401268137818E859F852817390711F438
:1009B00057FD06C0C7010E948B0C2CEF3FEFC8C04B
:1009C0004F705270452B31F0C7010E948B0C2BEFFA
:1009D0003FEFBEC0F801768067806114710441F07A
:1009E000AA24BB2448012E010894411C511C28C094
:1009F000C7010E948B0C2AEF3FEFAAC0C701B201CA
:100A000041E050E00E94C30C8981882321F408C092
:100A1000C7010E94E60C8981815089838F5FC1F7ED
:100A20008981882359F700E010E0C7010E94E60C95
:100A30000F5F1F4F04301105C1F70894A11CB11CB2
:100A4000F401D480C580AC14BD04C0F24424552404
:100A5000C701BE016F5F7F4F41E050E00E94C30CB1
:100A60009981892F807C61F4992321F40DC0C701FD
:100A70000E94E60C8981815089838F5FC1F704C091
:100A8000C7010E94E60C19828981882309F7C701F2
:100A9000BE016C5F7F4F42E050E00E94C30CC70173
:100AA000BE016A5F7F4F42E050E00E94C30C00E04D
:100AB00010E0C7010E94E60C0F5F1F4F04301105C4
:100AC000C1F7C701BE016E5F7F4F42E050E00E9458
:100AD000C30CDC80CD80F1E0CF16D10419F5BE80C7
:100AE000AF8081E0A816B104E9F49A818B81049764
:100AF00031F0C7010E948B0C27EF3FEF29C0E2E0E5
:100B0000F0E02E0E3F1EC701B10144E050E00E940C
:100B1000C30C21E030E01CC0C7010E94E60C0F5F4F
:100B20001F4F02C000E010E09A808B800815190565
:100B300098F30894411C511C4614570408F488CFBC
:100B4000C7010E948B0C26EF3FEF02C02EEF3FEF54
:100B5000C90169960FB6F894DEBF0FBECDBFCF9125
:100B6000DF911F910F91FF90EF90DF90CF90BF909A
:100B7000AF909F908F907F906F905F904F903F903D
:100B80002F90089588E293E099878887C7010E9493
:100B90006F0C0C970CF0F6CE2DEF3FEFD9CF6F9284
:100BA0007F928F929F92AF92BF92CF92DF92EF92FD
:100BB000FF920F931F93DF93CF9300D00F92CDB787
:100BC000DEB78C01F62EE72E0E949231F801778372
:100BD0006683B8E0CB2ED12CC00ED11E0A5F1F4F0A
:100BE000C601B80142E050E00E94650D81E090E04E
:100BF0009B838A83A2E08A2E912C8C0E9D1EC601B7
:100C0000B40142E050E00E94650D80E091E09B83DA
:100C10008A83C601B40142E050E00E94650D1B8248
:100C20001A82C601B40142E050E00E94650DC6017F
:100C3000B40142E050E00E94650DC601B40142E0FB
:100C400050E00E94650D2F2D3E2DC9018C017C01C5
:100C50003E010894611C711C20C00894E11CF11C29
:100C6000F7018081882311F08E32B9F75701A01A5D
:100C7000B10A1A141B0474F48E2D801B8983C601DB
:100C8000B30141E050E00E94650DC601B801A50125
:100C90000E94650D87010F5F1F4FF7018081882338
:100CA00011F07801DDCF1982C601BE016F5F7F4F61
:100CB00041E050E00E94650D00E011E01B830A83D3
:100CC000C601B40142E050E00E94650D1B830A8317
:100CD000C601B40142E050E00E94650D81E090E061
:100CE0000F900F900F90CF91DF911F910F91FF9078
:100CF000EF90DF90CF90BF90AF909F908F907F90BC
:100D00006F9008958F929F92AF92BF92CF92DF9291
:100D1000EF92FF920F931F93DF93CF9300D000D0F9
:100D200000D0CDB7DEB76C017B014A010E941104EF
:100D3000892B19F001E010E067C0F60122813381B0
:100D4000448155818091340390913503A0913603FD
:100D5000B0913703281739074A075B0719F40EEFDC
:100D60001FEF52C018E0A12EB12CAC0CBD1C0E948C
:100D700092319B01AC012F70307020503C4FC50167
:100D8000B9010E94290E813019F000E010E03CC04A
:100D900088E293E09A838983F60182819381A4811A
:100DA000B5818B839C83AD83BE83C501BE016F5F1C
:100DB0007F4F45E350E00E94850D8C01009709F1BB
:100DC000C601B7010E94CF058C010097D1F0C50183
:100DD0000E94800D8C010097A1F0EE24FF24C60133
:100DE00068E873E1A4010E9465048C010894E11C89
:100DF000F11CF3E0EF16F10421F08FEF0F3F18071D
:100E000071F3C5010E94140EC80126960FB6F8941E
:100E1000DEBF0FBECDBFCF91DF911F910F91FF902D
:100E2000EF90DF90CF90BF90AF909F908F900895FC
:100E3000DB01FC0128E233E03183208312962D91FF
:100E40003D914D915C911597228333834483558363
:100E500008950F9388E493E060E040E020E000E034
:100E60000E94FA3480E493E00E9464350F91089563
:100E70006F927F928F929F92AF92BF92CF92DF92AA
:100E8000EF92FF920F931F933C015B016A014901AE
:100E900082E693E00E94701289E090E0B50146E09E
:100EA00050E00E94851082E090E0C80ED91E8FE0CD
:100EB00090E0B60144E050E00E9485100E5F1F4FA5
:100EC00081E090E0B80144E050E00E948510E2E04B
:100ED000F0E0EE0EFF1E85E090E0B70144E050E048
:100EE0000E948510F40182819381A481B581F30170
:100EF00082839383A483B5831F910F91FF90EF901A
:100F0000DF90CF90BF90AF909F908F907F906F9029
:100F100008956F927F928F929F92AF92BF92CF92DD
:100F2000DF92EF92FF920F931F93DF93CF93CDB792
:100F3000DEB76E970FB6F894DEBF0FBECDBF4C0183
:100F40003B017A0169015801CE0101966FEF4FEF25
:100F50002FEF00E00E94FA3428E233E038872F8335
:100F6000F70182819381A481B58189879A87AB87B4
:100F7000BC873E872D87F60182819381A481B5814C
:100F80008F87988BA98BBA8B3C8B2B8BF501828139
:100F90009381A481B5818D8B9E8BAF8BB88F3A8F57
:100FA000298F8B819C81AD81BE818B8F9C8FAD8F72
:100FB000BE8FC401B301AE01495F5F4F9E01235F45
:100FC0003F4F8E010D5E1F4FE9E1EE2EF12CEC0E2E
:100FD000FD1E0E9438076E960FB6F894DEBF0FBE56
:100FE000CDBFCF91DF911F910F91FF90EF90DF90D8
:100FF000CF90BF90AF909F908F907F906F9008950B
:101000000F931F93DF93CF93CDB7DEB768970FB6DB
:10101000F894DEBF0FBECDBFFA01D9012281338122
:10102000448155812B833C834D835E83E8E2F3E06A
:10103000F887EF8329873A874B875C87FE87ED87A0
:1010400012962D913D914D915C9115972F87388B7C
:10105000498B5A8BFC8BEB8B21E02E832B813C81BF
:101060004D815E812D8B3E8B4F8B588FAE01495F3A
:101070005F4F9E01235F3F4F8E010D5E1F4F0E9409
:10108000890768960FB6F894DEBF0FBECDBFCF912B
:10109000DF911F910F910895DF93CF93CDB7DEB706
:1010A00062970FB6F894DEBF0FBECDBFFA01228162
:1010B0003381448155812B833C834D835E83E8E2F9
:1010C000F3E0F887EF8329873A874B875C87FE87B1
:1010D000ED8721E02E832B813C814D815E812F871E
:1010E000388B498B5A8BAE01495F5F4F9E01235F5E
:1010F0003F4F0E94000862960FB6F894DEBF0FBE05
:10110000CDBFCF91DF910895FC011382128288EE4A
:1011100093E0A0E0B0E084839583A683B78388EA58
:1011200092E09183808364870895DF93CF930F9239
:10113000CDB7DEB7FC016983A081B18112962D91F4
:101140003C911397BE016F5F7F4F41E050E0F90182
:1011500009950F90CF91DF910895CF93DF93EC0124
:1011600007C0E881F9810680F781E02DCE0109955D
:10117000E881F9810480F581E02DCE010995892B64
:1011800081F7DF91CF91089520E0FC0184858430C0
:1011900009F021E0822F08950F938EE493E060E040
:1011A00040E020E000E00E94FA340F910895FC0135
:1011B0008485843011F480E00895982F80E08D5F5D
:1011C0009B4F0E94AC100895CF93DF93EC018C8568
:1011D000843011F480E019C0CE010E94D708843118
:1011E00091F0882381F0883171F08C3151F4E881DD
:1011F000F9810480F581E02DCE01099520E0892B4D
:1012000019F021E001C020E0822FDF91CF910895F5
:10121000EF92FF920F931F93CF93DF93EC018C8596
:10122000843089F10E94640E0E9492317B018C010E
:10123000CE010E94D708882301F10E9492316E19D5
:101240007F09800B910B685E734080409040A8F44A
:1012500061E070E080E090E00E94A031E9CF8C85F1
:101260000E94B60EEC85F0E0EE0FFF1FE85CFC4F2D
:101270001182108284E08C8706C0CE010E94D708BC
:10128000882381F3ECCFDF91CF911F910F91FF90D5
:10129000EF9008950F931F93DF93CF930F92CDB7E5
:1012A000DEB78C01DC01ED91FC910480F581E02D2D
:1012B0000995892B19F42FEF3FEF0AC0F8018485B7
:1012C000BE016F5F7F4F0E941B108981282F30E085
:1012D000C9010F90CF91DF911F910F910895FC01EB
:1012E00084850E942A100895DF93CF930F92CDB783
:1012F000DEB7FC018485BE016F5F7F4F41E050E0A7
:101300000E942A10181619061CF02FEF3FEF03C099
:101310008981282F30E0C9010F90CF91DF91089586
:10132000FC016485643019F420E030E005C082E6F9
:1013300093E00E9462119C01C90108950F931F93CD
:10134000CF93DF938C01EA01FC018485843019F48A
:1013500081E090E007C00E94C40F892B39F481E03E
:1013600090E0F80193838283C0E0D0E0CE01DF916A
:10137000CF911F910F910895AF92BF92CF92DF92BC
:10138000EF92FF920F931F93CF93DF937C016B013A
:101390005A01FC018485843009F056C0C0E0D0E0D9
:1013A00003E014E0C8010E94AC10882321F08831CA
:1013B00011F08C3119F4F701C48706C02196005052
:1013C0001F4FC430D10571F7F70124852430E1F1B6
:1013D0008091910290919202019690939202809353
:1013E0009102892B31F480E094E0909392028093F3
:1013F00091024091910250919202822F61E020E08F
:101400000E94F50E82E090E0C80ED91EF701848597
:10141000B601A5010E94590F09C061E070E080E0AB
:1014200090E00E94A031C7010E94D708882321F4D0
:1014300084E0F701848708C0C7010E94D70887317C
:1014400061F721E030E002C020E030E0C901DF9127
:10145000CF911F910F91FF90EF90DF90CF90BF90B1
:10146000AF9008956F927F928F929F92AF92BF92AA
:10147000CF92DF92EF92FF920F931F93DF93CF9360
:10148000CDB7DEB7E5970FB6F894DEBF0FBECDBF80
:101490004C015B013A0193E1E92EF12CEC0EFD1EAB
:1014A000C7010E946435CE014B960E948E0D6E01DD
:1014B0000894C11CD11CC6010E9464358E01095FCD
:1014C0001F4FC80160E473E00E941807C701B8010C
:1014D0000E940304C701B501A6010E9482069C0177
:1014E00081309105C9F4D401ED91FC910484F58516
:1014F000E02D88E293E09E878D878B819C81AD8172
:10150000BE818F87988BA98BBA8BC401BE01635FA4
:101510007F4FA30109959C01C901E5960FB6F89488
:10152000DEBF0FBECDBFCF91DF911F910F91FF9016
:10153000EF90DF90CF90BF90AF909F908F907F9073
:101540006F900895FC011382128284EC92E09183E3
:101550008083758364830895DF93CF930F92CDB713
:10156000DEB7FC016983A081B18112962D913C9177
:101570001397BE016F5F7F4F41E050E0F90109957D
:101580000F90CF91DF9108950F9384E593E060E091
:1015900040E020E000E00E94FA340F9108958F921D
:1015A0009F92BF92CF92DF92EF92FF920F931F9381
:1015B000DF93CF93CDB7DEB72D970FB6F894DEBF8C
:1015C0000FBECDBF7C0108E313E088249924BB241F
:1015D0006E010894C11CD11CC6016B2D0E948408A9
:1015E000D8012D913C91F701848195812817390705
:1015F000B1F4C6010E94D708843121F481E0882E1D
:10160000912C0DC0C6010E94D7088C3141F4C6014F
:101610000E949009892B19F4C6010E940809B3940D
:101620000E5F1F4FF4E0BF16B9F6892841F4D701C9
:10163000ED91FC910480F581E02DC70109952D966F
:101640000FB6F894DEBF0FBECDBFCF91DF911F91D3
:101650000F91FF90EF90DF90CF90BF909F908F9071
:1016600008954F925F926F927F928F929F92AF9266
:10167000BF92DF92EF92FF920F931F93DF93CF936E
:10168000CDB7DEB72D970FB6F894DEBF0FBECDBF36
:101690004C012B013A010E94CF0A98E3E92E93E016
:1016A000F92E00E010E0DD245E010894A11CB11CBD
:1016B000C5016D2D0E948408F70120813181F4015C
:1016C000848195812817390761F4C5010E94D708E4
:1016D000873139F4C501B201A3010E949E09080FA8
:1016E000191FD39482E090E0E80EF91E94E0D91619
:1016F000F9F6C8012D960FB6F894DEBF0FBECDBF28
:10170000CF91DF911F910F91FF90EF90DF90BF90ED
:10171000AF909F908F907F906F905F904F900895C3
:101720009F92AF92BF92CF92DF92EF92FF920F9370
:101730001F93DF93CF93CDB7DEB72D970FB6F894F5
:10174000DEBF0FBECDBFC82E992E5B01CB010E941C
:10175000CF0A08E313E0DD247E010894E11CF11CAC
:10176000C7016D2D0E948408F80120813181F501A7
:10177000848195812817390761F5C7010E94D70830
:10178000873129F0C7010E94D7088C3111F5C701B4
:101790000E949009892BE9F0EC2DF92D8B819C8119
:1017A000938382838D819E81AF81B8858483958365
:1017B000A683B78389859A85AB85BC858087918709
:1017C000A287B38788EA92E0918380838D8584879E
:1017D0000BC0D3940E5F1F4FF4E0DF1609F68C2D7B
:1017E000992D64E00E9484088C2D992D2D960FB6BA
:1017F000F894DEBF0FBECDBFCF91DF911F910F9147
:10180000FF90EF90DF90CF90BF90AF909F900895A2
:10181000CF92DF92EF92FF920F931F93DF93CF93BC
:10182000CDB7DEB72D970FB6F894DEBF0FBECDBF94
:101830006C0100E010E07E010894E11CF11CC7017E
:10184000602F0E948408C7010E94D7088823B1F442
:10185000F60144815581802F61E020E00E94F50E61
:10186000802F0E94740E000F111F085C1C4FF601A0
:1018700084819581F8019183808305C00F5F1F4F9C
:1018800004301105E1F62D960FB6F894DEBF0FBEB9
:10189000CDBFCF91DF911F910F91FF90EF90DF901F
:1018A000CF900895DC01ED91FC91008CF18DE02D3D
:1018B00009950895DB01FC0128E233E031832083A0
:1018C00051962D913D914D915C9154972283338394
:1018D000448355830895FC01858996890895FC0108
:1018E000818D928D0895DF93CF930F92CDB7DEB7A0
:1018F000FC016983A081B18112962D913C911397CF
:10190000BE016F5F7F4F41E050E0F90109950F90F4
:10191000CF91DF910895CF93DF93EC0107C0E88169
:10192000F9810680F781E02DCE010995898D9A8D88
:10193000892BA9F7DF91CF9108950F938AE593E062
:1019400060E040E020E000E00E94FA340F9108954A
:10195000DF93CF930F92CDB7DEB7FC01818D928DCF
:10196000892B19F42FEF3FEF09C08485BE016F5F0B
:101970007F4F0E941B108981282F30E0C9010F90F2
:10198000CF91DF910895CF93DF93EC019A01498DB8
:101990005A8D41155105A1F02417350710F08C859B
:1019A00002C08C85A9010E942A109C0118161906F4
:1019B0003CF4898D9A8D821B930B9A8F898F02C07C
:1019C0002FEF3FEFC901DF91CF9108950F931F9340
:1019D000DF93CF930F92CDB7DEB78C01FC01818DE1
:1019E000928D892BA9F08485BE016F5F7F4F41E006
:1019F00050E00E942A101816190654F4F801818D3F
:101A0000928D0197928F818F8981282F30E002C0BB
:101A10002FEF3FEFC9010F90CF91DF911F910F91F1
:101A20000895EF92FF920F931F93DF93CF93CDB75B
:101A3000DEB728970FB6F894DEBF0FBECDBF8C017E
:101A4000DC01ED91FC910284F385E02D099582E69D
:101A500093E0F80164850E946211892B19F420E05B
:101A600030E025C0D8011C968C917E010894E11CC1
:101A7000F11CB70148E050E00E942A109C011816A2
:101A80001906ACF4C8010F96B7010E9457359D8125
:101A900080E02E81820F911DF801968B858B9F81AE
:101AA00080E02885820F911D928F818F9C01C90152
:101AB00028960FB6F894DEBF0FBECDBFCF91DF9151
:101AC0001F910F91FF90EF9008950F931F938C013A
:101AD000FB019A01DC0157966D917C9158971C96F9
:101AE0008C91AF010E94940F9C01F8018789908D21
:101AF000820F931F908F878BC9011F910F910895BB
:101B0000FC0184850E94920E0895FC01108E178AB4
:101B10006E5F7F4F84850E942E0F0895FC01138213
:101B2000128288EE93E0A0E0B0E084839583A683E0
:101B3000B7838EEC92E09183808384E08487CF0129
:101B40000F960E94643508956F927F928F929F92B4
:101B5000AF92BF92CF92DF92EF92FF920F931F93BB
:101B6000DF93CF93CDB7DEB7E5970FB6F894DEBF1E
:101B70000FBECDBF4C015B013A0183E1E82EF12C91
:101B8000EC0EFD1EC7010E946435CE014B960E94EB
:101B90008E0D6E010894C11CD11CC6010E946435D3
:101BA0008E01095F1F4FC80160E473E00E941807AF
:101BB000C701B8010E940304C701B501A6010E9434
:101BC00082069C0181309105C9F4D401ED91FC910C
:101BD0000088F189E02D88E293E09E878D878B81D4
:101BE0009C81AD81BE818F87988BA98BBA8BC401F4
:101BF000BE01635F7F4FA30109959C01C901E59672
:101C00000FB6F894DEBF0FBECDBFCF91DF911F910D
:101C10000F91FF90EF90DF90CF90BF90AF909F908B
:101C20008F907F906F900895CF93DF93EC018C8518
:101C3000843061F00E94B60EEC85F0E0EE0FFF1FDD
:101C4000E85CFC4F1182108284E08C87DF91CF9199
:101C50000895CF92DF92EF92FF920F931F93CF934D
:101C6000DF937C016B01FC018485843019F5C0E0B1
:101C7000D0E003E014E0C8010E94AC10882311F00A
:101C8000883119F4F701C48706C0219600501F4F10
:101C9000C430D10581F7F7018485843059F0D686A8
:101CA000C586128E118E62E0A60120E00E94F50E1C
:101CB00081E001C080E0DF91CF911F910F91FF90F3
:101CC000EF90DF90CF900895682F82E693E048E090
:101CD00050E00E945E12089590E0982F88278E5F52
:101CE0009B4F0E94AC1008951F93182F982F80E0EF
:101CF0008D5F9B4F0E94AC10833111F080E008C0D3
:101D000082E693E0612F42E050E00E945E1281E0A3
:101D10001F91089590E0982F88278E5F9B4F0E9417
:101D20006B1008951F93182F82E693E0612F40E215
:101D300050E00E945E120CC0812F0E946C0E83FF47
:101D400007C0812F68E10E948A0E20E030E00BC0BE
:101D5000812F0E946C0E84FFEFCF812F60E10E94E3
:101D60008A0E21E030E0C9011F9108951F93182FBA
:101D700082E693E0612F40E150E00E945E12812FE5
:101D80006FEF0E948A0E1F910895FF920F931F9389
:101D9000F62E672F082F10E00C5F1F4F102F002723
:101DA000C80140960E946B10C80141966F2D0E9499
:101DB0006B101F910F91FF900895FF920F931F9347
:101DC000F62E672F082F10E00C5F1F4F102F0027F3
:101DD000C80104960E946B10C80105966F2D0E94E1
:101DE0006B101F910F91FF900895FF920F931F9317
:101DF000CF93DF93082FF62EEA01122F862F815002
:101E0000853010F080E024C0802F0E94B60E1F297C
:101E100080E0902F9C5F612F0E946B10209719F03B
:101E2000802FBE010BC060916003709161036F5FF2
:101E30007F4F7093610360936003802F0E94DD0EDB
:101E400082E693E0602F41E050E00E945E1281E064
:101E5000DF91CF911F910F91FF9008951F93CF9322
:101E6000DF93182FFB01EA018081882349F48181E7
:101E7000882331F48281882319F48381882391F0A7
:101E8000209781F0912F80E0845F9B4FBF0144E059
:101E900050E00E948510812FBE010E94C50E21E0F6
:101EA00030E002C020E030E0C901DF91CF911F9106
:101EB00008951F93CF93DF93182FFB01EA018081D0
:101EC0008F3F51F481818F3F91F482818F3F79F46C
:101ED00083818F3F61F423C0882349F48181882363
:101EE00031F48281882319F483818823C1F02097FB
:101EF000B1F0912F80E0845F9B4FBF0144E050E040
:101F00000E948510812FBE010E94C50E82E693E0DB
:101F1000612F44E050E00E945E1281E001C080E049
:101F2000DF91CF911F910895AF92BF92DF92EF9210
:101F3000FF920F931F93CF93DF93D82EEB015A019B
:101F4000890182E693E06D2D0E949511801791071B
:101F500010F0780106C082E693E06D2D0E94951185
:101F60007C0182E693E06D2DAE01950187010E9410
:101F7000CE10C701DF91CF911F910F91FF90EF908D
:101F8000DF90BF90AF900895AF92BF92DF92EF9233
:101F9000FF920F931F93CF93DF93D82E5B018A019B
:101FA00088E04130580710F000E018E0DD2DC0E077
:101FB000CD5FDB4F82E693E06D2D0E9495117C0191
:101FC000CE010E94AC10873129F08C3119F000E06D
:101FD00010E003C0E016F10668F382E693E06D2D91
:101FE000A50198010E943F1182E693E06D2D40E229
:101FF00050E00E945E120BC0CE010E94AC108823FC
:1020000031F48D2D0E94B60E00E010E009C08D2D38
:102010000E946C0E84FFF0CF8D2D60E10E948A0E2D
:10202000C801DF91CF911F910F91FF90EF90DF904A
:10203000BF90AF9008950F93282FAB0182E693E0F5
:10204000622F21E030E001E00E94131281E090E075
:102050000F910895CF92DF92FF920F931F93CF932A
:10206000DF93F82E6B018A0182E693E06F2D0E94C8
:102070006211EC01009769F49F2D80E08D5F9B4F0A
:102080000E94AC108431D9F08823C9F08C31B9F0AA
:102090001FC0081719070CF4E8011C161D067CF474
:1020A00082E693E06F2DA6019E0100E00E941312CC
:1020B00082E693E06F2D40E450E00E945E12CE0174
:1020C000DF91CF911F910F91FF90DF90CF900895F6
:1020D000CFEFDFEFF4CF282F2A9880EF8EBD0DB41D
:1020E00007FEFDCF8EB59EBD0DB407FEFDCF8EB5AC
:1020F0002EBD0DB407FEFDCF8EB56EBD0DB407FE2F
:10210000FDCF8EB52A9A81E00895DC0120E030E011
:1021100090EF1DC02A989EBD0DB407FEFDCF8EB571
:10212000BEBD0DB407FEFDCF8EB5AEBD0DB407FE2E
:10213000FDCF8EB5FB01E20FF31F80818EBD0DB484
:1021400007FEFDCF11968EB52A9A2F5F3F4F2417B9
:10215000350700F3CA010895282F2A988FE08EBD15
:102160000DB407FEFDCF8EB59EBD0DB407FEFDCFAD
:102170008EB52EBD0DB407FEFDCF8EB51EBC0DB4C1
:1021800007FEFDCF8EB52A9A089590E00496982F09
:102190008827860F971F0E94AC1008957F928F9218
:1021A0009F92AF92BF92CF92DF92EF92FF920F93E6
:1021B0001F93CF93DF936C01762E7A01490158016A
:1021C000862F64E270E00E94C510182F872D65E20B
:1021D00070E00E94C510C82FD0E0912F80E0C82B7E
:1021E000D92BCE0DDF1DAE015770872D90E0880FE3
:1021F000991FC80ED91EF60120813181240F351F89
:10220000CA018A0D9B1D8150984098F000E018E0AB
:10221000041B150BC901B401A8010E948510A5017A
:10222000401B510BF60180819181080D191DB801E9
:1022300003C0C901B401A5010E9485107E01EA0C0A
:10224000FB1C072D10E00C5F1F4F102F0027C8014B
:1022500084966F2D0E946B10C80185966E2D0E948A
:102260006B10DF91CF911F910F91FF90EF90DF9056
:10227000CF90BF90AF909F908F907F9008950F93D5
:102280001F93FA01890140E050E09F010E94CE10A7
:102290001F910F9108950F931F93182F66E270E01E
:1022A0000E94C510082F812F67E270E00E94C510C0
:1022B000502F40E0282F30E0242B352BC9011F91EF
:1022C0000F910895FF920F931F93CF93DF93F62EF4
:1022D000C0E0D0E08F2D0E944B118C01009721F0BF
:1022E0008F2D0E944B11EC01C017D10799F7CE0139
:1022F000DF91CF911F910F91FF9008950F931F933E
:10230000182F60E270E00E94C510082F812F61E253
:1023100070E00E94C510502F40E0282F30E0242BA1
:10232000352BC9011F910F910895FF920F931F93B1
:10233000CF93DF93F62EC0E0D0E08F2D0E947E1168
:102340008C01009721F08F2D0E947E11EC01C017A7
:10235000D10799F7CE01DF91CF911F910F91FF9097
:102360000895DC0120E030E09FE01DC02A989EBD6A
:102370000DB407FEFDCF8EB5BEBD0DB407FEFDCF7B
:102380008EB5AEBD0DB407FEFDCF8EB51EBC0DB42F
:1023900007FEFDCF11968EB5FB01E20FF31F808380
:1023A0002A9A2F5F3F4F2417350700F3CA0108957B
:1023B000CF92DF92EF92FF920F931F93CF93DF9311
:1023C000690178015770C62FD0E02496CC0FDD1F2D
:1023D000C80FD91F28813981240F351FC801840FE8
:1023E000951F8150984088F000E018E0041B150B01
:1023F000C901B601A8010E94B111E01AF10A888151
:1024000099810C0D1D1DB80102C0C901B601A701BB
:102410000E94B111DF91CF911F910F91FF90EF902A
:10242000DF90CF9008958F929F92AF92BF92CF92FC
:10243000DF92EF92FF920F931F93CF93DF937C0174
:10244000A62E6A014901B02E862F68E270E00E9434
:10245000C510182F8A2D69E270E00E94C510C82FA0
:10246000D0E0912F80E0C82BD92BC7016A2DAE0197
:10247000960184010E94D811BB2099F47E01E80CDA
:10248000F91C0A2D10E00C5F1F4F102F0027C80108
:1024900088966F2D0E946B10C80189966E2D0E9440
:1024A0006B10DF91CF911F910F91FF90EF90DF9014
:1024B000CF90BF90AF909F908F9008951F93162F4D
:1024C000962F80E08F5F9B4F642F0E946B10812FAF
:1024D00061E070E00E94C5108823C9F71F9108953C
:1024E0000F931F93182F092F6CE271E080E090E0AA
:1024F0000E94A0310E94E103229A80E090E060E80F
:102500000E946B108BE190E065E50E946B108AE100
:1025100090E065E50E946B10212F302FC901FC016E
:1025200080E090E4918380838050904E91878087F3
:1025300080509841329620E68030920799F71F919B
:102540000F9108958091C10085FDFCCF8091C0005E
:1025500085FFF8CF6093C60081E090E00895109267
:1025600075031092740382EF92E09093730380934B
:1025700072030895FF920F931F93CF93DF938B0104
:102580000E949231EB01FF24FA9409C00E9492311B
:102590006C1B7D0B6017710710F080E008C0FEBC5B
:1025A0000DB407FEFDCF8EB58F3F81F781E0DF913F
:1025B000CF911F910F91FF900895FC01808161E000
:1025C0000E9495328FEF8EBD0DB407FEFDCF0895AA
:1025D000CF93DF93EC01DA016EBD0DB407FEFDCFA2
:1025E0008C918EBD1196EC91119782E090E00DB424
:1025F00007FEFDCFEEBD22E08030920731F0FD01F5
:10260000E80FF91FE0810196F2CF0DB407FEFDCF70
:102610008FEF8EBD0DB407FEFDCF8FEF8EBD0DB4D5
:1026200007FEFDCF8FEF8EBD0DB407FEFDCF8EB53B
:102630008B838F71853011F481E006C083E189833B
:10264000CE010E94DD1280E0DF91CF910895BF920C
:10265000CF92DF92EF92FF920F931F93CF93DF936E
:10266000EC016B017A010E9492318B01BB24BA9478
:1026700009C00E949231601B710B6D52714010F0C5
:1026800081E10BC0BEBC0DB407FEFDCF8EB58B83C0
:102690008F3F79F38E3F39F08FE08983CE010E941E
:1026A000DD1280E030C0D7011197EF28D9F08FEF0D
:1026B0008EBD20E030E09FEF0BC00DB407FEFDCFD4
:1026C0008EB59EBDF601E20FF31F80832F5F3F4F53
:1026D0002A173B0790F30DB407FEFDCF8EB5AC0D66
:1026E000BD1D8C931B828FEF8EBD0DB407FEFDCFF9
:1026F0008EB58FEF8EBD0DB407FEFDCF8EB5CE012A
:102700000E94DD1281E0DF91CF911F910F91FF9028
:10271000EF90DF90CF90BF9008950F931F938C019F
:1027200086E793E0F80162810E94901EF8018081A3
:1027300060E00E9495321F910F910895FF920F93D0
:102740001F93DF93CF9300D000D0CDB7DEB78C01BD
:10275000F62E29833A834B835C830E948D13C80134
:1027600068E572E00E94BA128F2D80648EBD0DB4B0
:1027700007FEFDCFFE0131969E012350304083813C
:102780008EBD0DB407FEFDCF3197E217F307B9F701
:10279000FF2011F087E801C085E98EBD0DB407FE6A
:1027A000FDCF8CE0F81631F48FEF8EBD0DB407FE2F
:1027B000FDCF8EB590E02FEF2EBD0DB407FEFDCFFF
:1027C0008EB587FF02C09150B9F7F80183830F904F
:1027D0000F900F900F90CF91DF911F910F91FF906D
:1027E0000895CF92DF92EF92FF920F931F93CF93B2
:1027F000DF93EC017A018B0169018C81833039F020
:1028000099E0EE0CFF1C001F111F9A95D1F7CE0125
:1028100068E1A80197010E949E13882319F086E0C1
:1028200089830CC0CE016EEFA6010E94E8128823B6
:1028300029F0CE010E94DD1281E004C0CE010E9489
:10284000DD1280E0DF91CF911F910F91FF90EF900B
:10285000DF90CF900895CF92DF92EF92FF920F9387
:102860001F93CF93DF93EC017A018B0169018C8177
:10287000833039F0B9E0EE0CFF1C001F111FBA9530
:10288000D1F7CE0161E1A80197010E949E13882330
:1028900039F084E08983CE010E94DD1280E006C019
:1028A000CE01B60140E052E00E942713DF91CF91A4
:1028B0001F910F91FF90EF90DF90CF900895BF92FE
:1028C000CF92DF92EF92FF920F931F93CF93DF93FC
:1028D000EC01B42E1C82198268830E9492316B0134
:1028E000888161E00E945632888161E00E949532C1
:1028F00086E793E00E94AA1E80E48A8386E793E03D
:1029000060E40E94901E80E09FEF9EBD0DB407FE24
:10291000FDCF8F5F8A30C9F709C00E9492316C19D0
:102920007D09615D774010F081E063C0CE0160E019
:1029300020E030E040E050E00E949E13813069F7D3
:102940001FEFCE0168E02AEA31E040E050E00E944B
:102950009E13853011F481E00DC080E01EBD0DB4E2
:1029600007FEFDCF9EB58F5F8430C1F79B839A3AF7
:1029700031F482E08C838C81823051F40DC00E944E
:1029800092316C197D09615D7740D8F282E031C0E7
:10299000EE24FF2487010FC0E12CF12C012D80E4EF
:1029A000182F09C00E9492316C197D09615D774032
:1029B00010F08AE01EC0CE0167E320E030E040E086
:1029C00050E00E949E13CE0169E2A80197010E9487
:1029D0009E13882339F78C81823031F5CE016AE36A
:1029E00020E030E040E050E00E949E13882339F060
:1029F00088E08983CE010E94DD1280E01AC08FEF4B
:102A00008EBD0DB407FEFDCF8EB5807C803C11F4E9
:102A100083E08C8380E09FEF9EBD0DB407FEFDCF69
:102A20002EB58F5F8330C1F7CE010E94DD12BA82CE
:102A300081E0DF91CF911F910F91FF90EF90DF9098
:102A4000CF90BF9008950F931F93CF93DF93DC0136
:102A5000EB018A0180E090E020E2FE01E80FF91F1F
:102A6000208301968B309105C1F757E040E024C0E8
:102A7000622F2E3219F088E690E007C05A3051F1EB
:102A80005AE048E018C0321729F1FC010196349150
:102A90003323C9F75417F0F02132E0F02F37D0F488
:102AA000822F81568A3110F4622F6052FE01E40FAA
:102AB000F11D60834F5F11962C91222311F02F326C
:102AC000B9F6F801B183A08390E08881803219F0D3
:102AD00091E001C090E0892FDF91CF911F910F917C
:102AE0000895CF92DF92EF92FF920F931F93DF939F
:102AF000CF9300D000D0CDB7DEB77C01FC01868932
:102B00009789A08DB18D89839A83AB83BC8300E0C4
:102B100010E06E010894C11CD11C49815A816B815F
:102B20007C81D70114968D919C91159796010E94F6
:102B30002121882379F1D7011496ED91FC91159705
:102B40008481080F111DB0E100301B0718F52981A1
:102B50003A814B815C818289803131F4285F3F4F1B
:102B600040405040D0F205C0285F3F4F4F4F5F407C
:102B7000A0F2C801A0E0B0E029E0880F991FAA1FC9
:102B8000BB1F2A95D1F7F701828B938BA48BB58B52
:102B900081E001C080E00F900F900F900F90CF91D7
:102BA000DF911F910F91FF90EF90DF90CF900895EC
:102BB000CF93DF93EC01FB018A818823D1F57D83DC
:102BC0006C8382898031C9F582E08A831E8A1F8ADC
:102BD000188E198E83899489A0E0B0E035E0880FC3
:102BE000991FAA1FBB1F3A95D1F78A8B9B8BAC8B81
:102BF000BD8B0FC083E08A8385899689A789B08DB4
:102C00008E8B9F8BA88FB98FCE010E947115882360
:102C100081F081E089831E821F82188619861A86B8
:102C20001B861C861D861E861F86188A198A1B8293
:102C300001C080E0DF91CF9108958032D1F7DACFE3
:102C40006F927F928F929F92AF92BF92CF92DF92BC
:102C5000EF92FF920F931F93CF93DF93EC017A01D2
:102C60008B012A81222309F480C08A899B89AC893F
:102C7000BD8984179507A607B70708F476C085C0F5
:102C8000E114F1040105110551F41E821F8218861A
:102C900019861A861B861C861D8681E067C02A85D8
:102CA0003B854C855D85EC81FD81818590E00996B1
:102CB000215030404040504039014A01082E04C0A4
:102CC00096948794779467940A94D2F72F5F3F4F36
:102CD0004F4F5F4F0894E108F108010911095701AE
:102CE000680104C0D694C794B794A7948A95D2F784
:102CF0000894E11CF11C011D111DA614B704C804A1
:102D0000D90428F0211531054105510549F48E8972
:102D10009F89A88DB98D8E839F83A887B98716C098
:102D2000A618B708C808D90811C04E815F81688508
:102D300079858C819D8194010E9421210894A108AC
:102D4000B108C108D108882331F40FC046E0842EB1
:102D5000912C8C0E9D1EA114B104C104D10429F73D
:102D6000EA86FB860C871D8798CF80E0DF91CF91A4
:102D70001F910F91FF90EF90DF90CF90BF90AF9099
:102D80009F908F907F906F900895223009F078CFB8
:102D9000E7CFCF93DF93EC01462F6E857F8588893F
:102DA00099890E94361FAC01009719F420E030E0A9
:102DB0000AC08B81282F30E065E0220F331F6A950F
:102DC000E1F7240F351FC901DF91CF9108950F93CB
:102DD0001F93CF93DF938C01FC0182818823F1F153
:102DE000818187FF38C0C80161E00E94C916EC01EB
:102DF0000097A1F18881853E89F1F80182818230B6
:102E000040F482899389A489B5898C8F9D8FAE8F78
:102E1000BF8FF801868997899B8F8A8F86899789CA
:102E2000A08DB18DCD01AA27BB279D8B8C8BE09106
:102E30007903F0917A03309751F0BE016A5E7F4FBB
:102E4000CE0148960995888D998D9B8B8A8BF801C8
:102E500081818F7781830E94EE1E04C081E0F8019A
:102E6000808380E0DF91CF911F910F9108956F9241
:102E70007F928F929F92AF92BF92CF92DF92EF920A
:102E8000FF920F931F93DF93CF9300D000D0CDB765
:102E9000DEB77C015A016B01DC0112968C9112970E
:102EA000813009F091C011968C9181FF8DC0A0C036
:102EB0000097A105B10511F481E087C0F701628494
:102EC000738484849584C701B601A5010E942016ED
:102ED000882309F479C0D70114968D919C91159798
:102EE000A114B104C104D10489F456964D915D91A9
:102EF0006D917C9159970E949021882309F464C0B8
:102F0000F701168A178A108E118E44C0D7011696C3
:102F10004D915D916D917C9119979E012F5F3F4F6F
:102F20000E942121882309F44FC0D7011496ED9106
:102F3000FC91159749815A816B817C81828980310E
:102F400049F4483FBFEF5B07B0E06B07B0E07B0799
:102F500048F020C0483F8FEF58078FEF68078FE099
:102F60007807C0F4CF010E949021882369F1D7012E
:102F700016964D915D916D917C91199714968D9156
:102F80009C9115970FEF1FEF2FEF3FE00E94B120AC
:102F90008823D1F0F701A28AB38AC48AD58A8181B5
:102FA00080688183C7010E94E716882369F0B60113
:102FB000A5016A147B048C049D0410F4B401A301E0
:102FC000C7010E94201601C080E00F900F900F9063
:102FD0000F90CF91DF911F910F91FF90EF90DF90B5
:102FE000CF90BF90AF909F908F907F906F900895FB
:102FF000F70182899389A489B58984179507A60763
:10300000B70708F055CFE0CF1F93CF93DF93EC01C4
:10301000142F262F30E0F90185E0EE0FFF1F8A956F
:10302000E1F7E058FC4F8385817121F0842F827194
:1030300009F064C08091800590918105A09182057E
:10304000B09183058E879F87A88BB98B6B83F9011D
:10305000B5E0EE0FFF1FBA95E1F7E058FC4F248969
:10306000358940E050E0A901332722272E8B3F8B82
:10307000488F598F828D938DA0E0B0E0282B392B9B
:103080004A2B5B2B2E8B3F8B488F598F838590E08B
:1030900088719070009751F4848D958DA68DB78DB1
:1030A0008A8B9B8BAC8BBD8B81E008C0409731F540
:1030B000CE010E947115882309F184E08A83812F53
:1030C0008F7089831E821F82188619861A861B8636
:1030D0001C861D8614FF18C0CE0140E050E060E061
:1030E00070E00E943717882379F408C04A895B8909
:1030F0006C897D89CE010E94201602C01A8280E070
:10310000DF91CF911F91089515FDF0CF81E0F8CFA9
:103110000F931F938C010E94E716F80112821F91F2
:103120000F9108952F923F924F925F926F927F92EC
:103130008F929F92AF92BF92CF92DF92EF92FF92C7
:103140000F931F93DF93CF9300D0CDB7DEB74C0121
:103150001A01DC0112968C911297882309F4B4C0ED
:1031600011968C9180FFB0C0C7C015012E183F0882
:103170002B01F4013696FA83E98331019FC0D40113
:103180001A962D913D914D915C911D979FEFA92E1F
:1031900091E0B92EA222B3221496ED91FC911597DD
:1031A00079018A0189E016950795F794E7948A9545
:1031B000D1F7948112968C91823049F445895689D1
:1031C0006789708D4E0D5F1D601F711F35C0D92E30
:1031D000DA94DE20A114B10401F5DD20F1F421150B
:1031E00031054105510551F4F40186899789A08D77
:1031F000B18D86839783A087B1870FC0D4011696BF
:103200004D915D916D917C911997CF0129813A8102
:103210000E942121882309F457C0F4014681578177
:1032200060857185848195810E94CE1EAB01BC01B1
:103230004D0D511D611D711DA114B10499F4F0E0F3
:103240006F16F2E07F0670F0809180059091810505
:10325000A0918205B0918305481759076A077B073B
:1032600009F067C0CB01BA0140E00E94361F009709
:1032700059F140E052E04A195B09830146155705B0
:1032800008F48A019C012A0D3B1DC201B901A80165
:103290000E949E03400E511E980140E050E0F40150
:1032A00082859385A485B585820F931FA41FB51FC2
:1032B00082879387A487B587601A710A61147104A5
:1032C00009F05DCFA10102C04FEF5FEFCA010F907F
:1032D0000F90CF91DF911F910F91FF90EF90DF90B2
:1032E000CF90BF90AF909F908F907F906F905F90A6
:1032F0004F903F902F900895D4015296AD90BD907D
:10330000CD90DC9055971A96ED90FD900D911C9103
:103310001D979A0140E050E0D601C5018E199F0922
:10332000A00BB10B281739074A075B0708F01DCF20
:103330001FCF809185059091860592010E942B14E4
:10334000882311F200E012E0A5CFDF93CF930F9214
:10335000CDB7DEB7BE016F5F7F4F41E050E00E9406
:103360009218019719F02FEF3FEF03C08981282FA2
:1033700030E0C9010F90CF91DF910895CF93DF9393
:10338000EC019C012A5F3F4F8C819D8141E050E020
:1033900060E070E00E94F7218823A1F08E899F8968
:1033A000A88DB98D0097A105B10559F48E819F8133
:1033B000A885B9858E8B9F8BA88FB98F89818068EE
:1033C000898381E0DF91CF9108952F923F924F92B0
:1033D0005F926F927F929F92AF92BF92CF92DF9255
:1033E000EF92FF920F931F93DF93CF9300D000D003
:1033F000CDB7DEB76C01162F072F1A01DC0112962C
:103400008C911297813009F046C111968C9181FF01
:1034100042C15DC1F60142895389648975898285FB
:103420009385A485B58584179507A607B70731F05E
:10343000C6010E942016882309F42DC1812F902FE8
:103440009C0129013101EDC0D6011496ED91FC914A
:103450001597DA01C90119E0B695A7959795879553
:103460001A95D1F794809A949822AFEFAA2EA1E0F2
:10347000BA2EA222B322992009F052C0A114B1049D
:1034800009F04EC0D60116964D915D916D917C91DB
:103490001997411551056105710571F1CF019E0123
:1034A0002F5F3F4F0E942121882309F4F4C0298116
:1034B0003A814B815C81D6011496ED91FC91159770
:1034C0008289803149F4283FBFEF3B07B0E04B07CA
:1034D000B0E05B0748F019C0283FEFEF3E07EFEF81
:1034E0004E07EFE05E0788F4D60116962D933D93C4
:1034F0004D935C93199714C0F60186899789A08D26
:10350000B18D0097A105B10531F4C6010E94BE1925
:10351000882331F4C0C0F60186839783A087B187E2
:10352000D60116964D915D916D917C9119971496E7
:103530008D919C9115970E94CE1E7B018C01E90C08
:10354000F11C011D111DA114B104A9F4B0E06B160A
:10355000B2E07B06A8F5F6012285338544855585C2
:1035600082899389A489B589281739074A075B0797
:1035700010F045E001C041E0C801B7010E94361FCC
:10358000009709F488C040E052E04A195B098301C2
:103590004615570508F48A019C012A0D3B1DC901F7
:1035A000B201A8010E949E03A00EB11EF0E0AF166A
:1035B000F2E0BF0611F50E94331F8823F1F46BC0BF
:1035C0008091800590918105A0918205B09183053D
:1035D0008E159F05A007B10711F40E94BF1E8091B0
:1035E000850590918605B801A70192010E94F1130B
:1035F000882309F450C000E012E0980140E050E058
:10360000F60182859385A485B585820F931FA41F3B
:10361000B51F82879387A487B587400E511E601A15
:10362000710AD6011A962D913D914D915C911D978D
:103630006114710409F008CF52968D919D910D90FF
:10364000BC91A02D82179307A407B50748F4F60193
:10365000228B338B448B558B81818068818310C092
:103660008091790390917A03892B51F021143104D0
:1036700039F0D60111968C911197806811968C9330
:10368000F601818183FF05C0C6010E94E7168823E9
:1036900011F0A10105C081E0D6018C934FEF5FEFDF
:1036A000CA010F900F900F900F90CF91DF911F9153
:1036B0000F91FF90EF90DF90CF90BF90AF909F90D1
:1036C0007F906F905F904F903F902F90089582FD74
:1036D000A1CEB4CE9F92AF92BF92CF92DF92EF92E3
:1036E000FF920F931F93CF93DF938C01FC0182898C
:1036F0009389A489B589805E9F4FAF41B04008F09F
:103700005CC0C8010E94BE19882309F456C0D801C4
:1037100016964D915D916D917C91199714968D91AE
:103720009C9115970E94CE1E5B016C0145E00E94A2
:10373000361FEC01009709F442C080E092E0FE01E0
:103740009C01119221503040E1F79C2EED2EFF2478
:10375000F39411C0B601A5014F0D511D611D711DDE
:103760008091850590918605292D3E2D0E94F113AB
:10377000882319F1F394D8011496ED91FC911597D3
:103780002481F21638F330E040E050E089E0220F67
:10379000331F441F551F8A95D1F752968D919D91E5
:1037A0000D90BC91A02D820F931FA41FB51FF8018F
:1037B000828B938BA48BB58B02C0C0E0D0E0CE018E
:1037C000DF91CF911F910F91FF90EF90DF90CF90FD
:1037D000BF90AF909F9008953F924F925F926F92EB
:1037E0007F928F929F92AF92BF92CF92DF92EF9291
:1037F000FF920F931F93CF93DF934C01EB01442E65
:10380000352E522E8C819D81F40195838483CB01CA
:1038100040E050E060E070E00E94201677244FC046
:10382000CE010E94A51997FDABC08A859B85AC850A
:10383000BD8581509E4FAF4FBF4F8A879B87AC8716
:10384000BD87A0908005B0908105C0908205D09082
:10385000830520E8E22E23E0F22E00E010E0602E47
:10386000F7018081882311F0853E79F4772041F4B7
:10387000F401A686B786C08AD18A638277247394BE
:10388000F7018081882391F428C0B80195E0660F84
:10389000771F9A95E1F760587C4F842D932D4BE06C
:1038A00050E00E949103009709F47DC00F5F1F4F05
:1038B00080E290E0E80EF91E0031110581F62A85BC
:1038C0003B854C855D858A899B89AC89BD89281794
:1038D00039074A075B0708F4A3CF56FE51C051FED3
:1038E0004FC0772051F0F4016380C40161E00E9471
:1038F000C916EC01009761F443C08A81823009F453
:103900003FC0CE010E946A1B0097D1F1EC016624F2
:1039100080E2FE0111928A95E9F7DE01242D332D14
:10392000C901FC018BE001900D928150E1F7E0911B
:103930007903F0917A03309739F0BE01625F7F4FCF
:10394000CE014096099508C081E298E2998B888B58
:1039500080E098E09F878E87888999899B8B8A8BE6
:10396000998F888F8E859F859F8B8E8B0E94EE1EF0
:10397000882331F0C401662D452D0E94041801C032
:1039800080E0DF91CF911F910F91FF90EF90DF903A
:10399000CF90BF90AF909F908F907F906F905F90EF
:1039A0004F903F90089557FEE5CFEACF2F923F9278
:1039B0004F925F926F927F928F929F92AF92BF923F
:1039C000CF92DF92EF92FF920F931F93DF93CF93EB
:1039D000CDB7DEB7C454D0400FB6F894DEBF0FBEEB
:1039E000CDBF3C016B01DE01A05CBF4F11965C9323
:1039F0004E9323962FAF23976115710509F483C069
:103A00001E8618A6FC018281882309F07CC01C86D2
:103A10001EA2FA0180818F32F1F086015CE0E52E72
:103A2000F12CEC0EFD1E40E4A42EB12CAC0EBD1EFC
:103A30004E010894811C911C2596FFAEEEAE259791
:103A400036E2232E312C2C0E3D1E270124C0119668
:103A5000B183A08301C0FD01A081B1818C918F321F
:103A6000B1F3D60112968C91129782508230A8F24F
:103A70008E010A5D1F4F14966D917C911597C801B8
:103A80000E94D815882351F63EC0342D252D87017C
:103A9000832F922F7C01F50180819181B401A501D2
:103AA0000E942315882329F42EC03196D501ED9369
:103AB000FC93D501ED91FC9180818F32B1F3882385
:103AC000C9F0C701B801A40121E00E94EC1B8823C2
:103AD000D1F00C151D0519F0C8010E948818259613
:103AE000EEADFFAD2597EE16FF0679F6C101322D3A
:103AF000292FCDCFC301B801A40123962FAD239761
:103B00000E94EC1B01C080E0CC5BDF4F0FB6F89445
:103B1000DEBF0FBECDBFCF91DF911F910F91FF9000
:103B2000EF90DF90CF90BF90AF909F908F907F905D
:103B30006F905F904F903F902F900895FB01242F3E
:103B40006091770370917803AF010E94D61C0895AD
:103B5000CF93DF93EC01662331F06E96D093780318
:103B6000C09377036E9788A1882321F0CE014E96EB
:103B70000E948818CE014E962596BE010E94D81547
:103B8000DF91CF9108950F931F93CF93DF93EC01B3
:103B90000E945F148823C9F08E010B5F1F4FC8017C
:103BA000BE0141E00E947A1F882339F4C801BE019A
:103BB00040E00E947A1F882341F0CE0161E00E941C
:103BC000A81D882319F081E001C080E0DF91CF912A
:103BD0001F910F910895CF93DF93EC010CC0E091FA
:103BE0009302F0919402A081B1812D913C91CF017B
:103BF000F90109952196FE016491662381F7DF9111
:103C0000CF9108950E94EB1D8091930290919402B0
:103C10000E94D2350895CF93DF93EC0189818823E8
:103C2000E1F08BE291E00E94EB1D698180919302AB
:103C30009091940270E040E150E00E94053787E2E5
:103C400091E00E94EB1D6B81809193029091940210
:103C500070E040E150E00E941837DF91CF91089565
:103C6000CF93DF93EC018981882379F080EF90E096
:103C70000E94021E8981813021F480EC90E00E9434
:103C8000021ECE010E940B1E10C08F89882319F4DA
:103C900083EA90E008C088A1882319F488E890E0BE
:103CA00002C088E790E00E94021EDF91CF91089544
:103CB0000E94301EFFCFEF92FF920F931F937C0163
:103CC0008B018FE191E00E94EB1D80919302909116
:103CD0009402B8010E943737C7010E940B1E1F9142
:103CE0000F91FF90EF9008950E945B1EFFCFDF932E
:103CF000CF930F92CDB7DEB769830496BE016F5F95
:103D00007F4F41E050E00E94E51920E030E001974C
:103D100011F421E030E0C9010F90CF91DF910895B7
:103D200040E082E002C0880F4F5F861710F44630F3
:103D3000D1F7242F30E0C9019595879580658CBD1A
:103D400040FF02C080E004C080E0463009F081E01E
:103D50008DBD08958AE061E00E9495328AE061E0BD
:103D60000E9456328CE060E00E9456328BE061E0A7
:103D70000E9456328DE061E00E94563208958FEF26
:103D80009FEFAFEFBFEF8093800590938105A093E5
:103D90008205B09383051092840508950F931F93B5
:103DA0008C01CB01BA016250704080409040F80114
:103DB000248130E040E050E00E9493379B01AC0149
:103DC000F80182859385A485B585280F391F4A1F80
:103DD0005B1FB901CA011F910F910895809184055D
:103DE00080FF3DC040918005509181056091820522
:103DF00070918305809185059091860520E833E0D8
:103E00000E94F113882369F18091840581FF22C00B
:103E100080917B038230F0F040917C0350917D03D0
:103E200060917E0370917F03809180059091810560
:103E3000A0918205B0918305480F591F6A1F7B1F0F
:103E4000809185059091860520E833E00E94F1136A
:103E5000882339F0809184058E7F8093840581E0EA
:103E6000089580E008950E94EE1E0895DF92EF927B
:103E7000FF920F931F937B018C01D42E80918005BC
:103E800090918105A0918205B09183058E159F05C3
:103E9000A007B107E1F00E94EE1E882311F1D2FCC9
:103EA0000CC08091850590918605B801A70120E896
:103EB00033E00E942B148823A1F010928405E09235
:103EC0008005F0928105009382051093830583E0BD
:103ED000D822809184058D298093840520E833E0E1
:103EE00002C020E030E0C9011F910F91FF90EF90D8
:103EF000DF9008956F927F928F929F92AF92BF92C0
:103F0000CF92DF92EF92FF920F931F93CF93DF93A5
:103F1000EC01142F70938605609385051A8A82E060
:103F200090E0A0E0B0E088839983AA83BB831092DD
:103F300084058FEF9FEFAFEFBFEF809380059093E5
:103F40008105A0938205B0938305442321F4662460
:103F50007724430136C0453008F0EFC060E070E0E0
:103F600080E090E040E00E94361FDC01009709F4F9
:103F7000E4C0412F50E041505040FA0174E0EE0F90
:103F8000FF1F7A95E1F7E80FF91FE254FE4F808199
:103F900090E08F779070892B09F0CFC064E0440FD8
:103FA000551F6A95E1F7A40FB51FAA53BE4F6D9038
:103FB0007D908D909C90611471048104910409F4AA
:103FC000BCC0C401B30140E00E94361F5C010097F1
:103FD00009F4B3C0FC01838594858050924009F0B8
:103FE000ACC0F5012089222309F4A7C04685578576
:103FF0004115510509F4A1C020937B0385858C836D
:10400000198691E060E070E00AC0990F6F5F7F4F02
:104010006830710509F491C089858F5F89878C812B
:10402000891799F7F501668977896115710519F086
:1040300080E090E005C0F50164A175A186A197A17B
:1040400060937C0370937D0380937E0390937F0342
:104050006A01EE24FF24C60CD71CE81CF91CCE868E
:10406000DF86E88AF98AF501018912891C8B0B8B9E
:1040700030E040E050E00E9493376C0D7D1D8E1DB6
:104080009F1D6D8B7E8B8F8B988F35E0000F111FDE
:104090003A95E1F701501E4F012F1127069598011F
:1040A00040E050E0260F371F481F591F2A873B87E3
:1040B0004C875D87F50183899489009721F07C0105
:1040C00000E010E005C0F501E0A0F1A002A113A1FD
:1040D000C401B301621B730B840B950B6E0D7F1D26
:1040E000801F911F098404C09695879577956795E1
:1040F0000A94D2F76D837E838F839887653FFFE0B4
:104100007F07F0E08F07F0E09F0718F48CE08A8BC0
:1041100014C0655F7F4F8040904010F480E10AC07A
:10412000F50184A595A5A6A5B7A58D8B9E8BAF8B14
:10413000B88F80E28A8B81E001C080E0DF91CF916F
:104140001F910F91FF90EF90DF90CF90BF90AF90B5
:104150009F908F907F906F90089542600E94361FCD
:1041600008958F929F92AF92BF92CF92DF92EF927B
:10417000FF920F931F93CF93DF93EC016A017B01B2
:1041800048015901423051056105710508F44BC0E1
:104190008D819E81AF81B8850196A11DB11D8417C7
:1041A0009507A607B70708F43EC08A89803129F42D
:1041B000252F362F472F55270BC08032A1F59A01A6
:1041C000AB0117E056954795379527951A95D1F786
:1041D0008E859F85A889B989280F391F4A1F5B1FC3
:1041E000CA01B90141E00E94AD209C010097D9F0BD
:1041F0008A89803149F4F601F070EE0FFF1FE20F5B
:10420000F31F918280820DC0F601EF77F070EE0F00
:10421000FF1FEE0FFF1FE20FF31F80829182A28229
:10422000B38281E001C080E0DF91CF911F910F91B7
:10423000FF90EF90DF90CF90BF90AF909F908F90C6
:104240000895CF92DF92EF92FF920F931F93CF9337
:10425000DF93EC017A018B01690142305105610560
:10426000710508F453C08D819E81AF81B885019698
:10427000A11DB11D84179507A607B70708F446C00E
:104280008A89803129F45527412F302F2F2D0BC0DB
:104290008032E1F59A01AB0167E056954795379575
:1042A00027956A95D1F78E859F85A889B989280FAA
:1042B000391F4A1F5B1FCA01B90140E00E94AD20AF
:1042C0009C01009719F18A89803159F4F701F07047
:1042D000EE0FFF1FE20FF31F80819181A0E0B0E09D
:1042E0000EC0F701EF77F070EE0FFF1FEE0FFF1F0C
:1042F000E20FF31F80819181A281B381BF70F6012B
:1043000080839183A283B38381E001C080E0DF9149
:10431000CF911F910F91FF90EF90DF90CF90089574
:104320008F929F92AF92BF92CF92DF92EF92FF92C5
:104330000F931F93DF93CF9300D000D0CDB7DEB79C
:104340005C016A017B014E010894811C911CC5012E
:10435000B701A60194010E9421218823B1F1C50172
:10436000B701A60100E010E020E030E00E94B1209B
:10437000882359F1F50180819181A281B381C8160A
:10438000D906EA06FB0620F4C082D182E282F382DB
:10439000C980DA80EB80FC80F5018289803151F49C
:1043A000F8EFCF16FFEFDF06F0E0EF06F0E0FF06D4
:1043B00070F209C088EFC8168FEFD8068FEFE806B5
:1043C0008FE0F80620F281E001C080E00F900F90AE
:1043D0000F900F90CF91DF911F910F91FF90EF9071
:1043E000DF90CF90BF90AF909F908F9008952F92C5
:1043F0003F924F925F926F927F928F929F92AF9275
:10440000BF92CF92DF92EF92FF920F931F93DF93B1
:10441000CF93CDB7DEB766970FB6F894DEBF0FBE69
:10442000CDBF1C0149875A876B877C873E872D87C4
:10443000DC0115962D913D914D915C9118972F5F60
:104440003F4F4F4F5F4F2D833E834F835887ED85FE
:10445000FE8500811181228133810115110521051D
:10446000310549F0480159010894811C911CA11C97
:10447000B11C10E006C0DC018D909D90AD90BC9009
:1044800011E075016401442455243201F101858154
:104490009681A781B085481659066A067B0608F002
:1044A0009DC02D813E814F8158852C153D054E05BF
:1044B0005F0550F4F2E08F2E912CA12CB12CE2E09C
:1044C000CE2ED12CE12CF12CC101B701A6019E0109
:1044D0002F5F3F4F0E942121882309F47FC08981EB
:1044E0009A81AB81BC810097A105B10571F08C1454
:1044F0009D04AE04BF0409F010E046015701089482
:10450000811C911CA11CB11C16C0D701C6010196CB
:10451000A11DB11D8B8B9C8BAD8BBE8B881999090E
:10452000AA09BB0929853A854B855C8582179307C3
:10453000A407B50759F00894411C511C611C711C5B
:104540000894C11CD11CE11CF11CA0CF112349F01F
:104550008B899C89AD89BE89F10180839183A28377
:10456000B383C101B701A6010FEF1FEF2FEF3FE0AB
:104570000E94B120882399F431C0260137010894A4
:104580004108510861087108C101B301A2019701F6
:1045900086010E94B120882309F1730162018C1405
:1045A0009D04AE04BF0448F3AD85BE854D915D9179
:1045B0006D917C91411551056105710539F0C1017D
:1045C000950184010E94B120882341F0ED85FE858C
:1045D00080829182A282B38281E001C080E06696EF
:1045E0000FB6F894DEBF0FBECDBFCF91DF911F9104
:1045F0000F91FF90EF90DF90CF90BF90AF909F9082
:104600008F907F906F905F904F903F902F90089584
:10461000FC01E05CFF4F88E090E0819391938FEF85
:104620008083E254F040CF0160E040E450E00E941B
:104630002B23089587E895E00E94082380EE98ECEC
:10464000AFEFBFEF8093CA059093CB05A093CC0545
:10465000B093CD050895DC0140FF03C001C06D9308
:104660006D934250E0F75040D0F70895EF92FF92DB
:104670000F931F937C01162F862F82958F700FE06A
:10468000982F90278295807F892BF70109951F70BD
:1046900001271295107F812F802BF70109951F911B
:1046A0000F91FF90EF900895CF92DF92EF92FF92DB
:1046B0000F931F93CF93DF936C017B01042F82E054
:1046C000F6010995E70110E005C0C60169910E9455
:1046D00036231F5F1017C8F383E0F601099560E0E9
:1046E0003CE810C0F701208198E0822F862766956C
:1046F00080FD6327915011F02695F7CF0894E11CB7
:10470000F11C0150002371F7C6010E943623DF918E
:10471000CF911F910F91FF90EF90DF90CF90089570
:104720002F923F924F925F926F927F928F929F92C1
:10473000AF92BF92CF92DF92EF92FF920F931F93AF
:10474000DF93CF9300D000D0CDB7DEB71C012B0193
:104750005C834B832A83370148010E9492316B01AD
:104760007C01198259C0F1010995181619060CF03F
:1047700053C0F2010995823029F0833061F4AA24F4
:10478000A3944AC00E9492316B017C0181E089832D
:10479000AA2400E040C09981992309F43DC090E02B
:1047A0009C0144E0359527954A95E1F780959095D1
:1047B0008F70907028173907D9F5112319F0B22E90
:1047C00010E02AC0B29490EFB922B22AAA20D1F008
:1047D0000EC0308198E0832F8227269580FD252703
:1047E000915019F43196415007C03695F4CFEB81C2
:1047F000FC81402F20E05CE8442359F72B15C9F4D5
:10480000402F17C0EA810E1798F4EB81FC81E00F6E
:10481000F11DB0820F5F11E00E9492316C197D0989
:104820008E099F09661577058805990508F49BCFC1
:1048300040E0842F0F900F900F900F90CF91DF9159
:104840001F910F91FF90EF90DF90CF90BF90AF90AE
:104850009F908F907F906F905F904F903F902F90A0
:104860000895F999FECF72BD61BDF89A80B508959B
:10487000F999FECF1FBA72BD61BD40BD0FB6F89465
:10488000FA9AF99A0FBE08950F931F93CF93DF936F
:10489000FC01738D76957170A685B7859585772314
:1048A00029F08C91892309F454C004C08C91892388
:1048B00009F04FC08389948920E001972FEF8F3F43
:1048C0009207D9F7C589D689A685B785158560E091
:1048D00031E040E050E000E0CE01202F01972FEFC3
:1048E0008F3F9207D9F78C91812311F0632B03C07E
:1048F000832F80956823330F4F5F5F4F48305105FA
:1049000059F78789908D20E001972FEF8F3F92070D
:10491000D9F771116095809111062091120690E0EF
:1049200001968F73907030E08217930779F0E091D1
:104930001106F0E0EF52FA4F60838091110690E08B
:1049400001968F7390708093110603C0838D8160F0
:10495000838FDF91CF911F910F9108951F920F9236
:104960000FB60F9211242F933F934F935F936F9342
:104970007F938F939F93AF93BF93EF93FF93809118
:10498000CF059091D005009711F00E944424FF912B
:10499000EF91BF91AF919F918F917F916F915F91B7
:1049A0004F913F912F910F900FBE0F901F90189530
:1049B0001F920F920FB60F9211242F933F934F9394
:1049C0005F936F937F938F939F93AF93BF93EF9377
:1049D000FF938091CF059091D005009711F00E9430
:1049E0004424FF91EF91BF91AF919F918F917F915F
:1049F0006F915F914F913F912F910F900FBE0F904C
:104A00001F9018951F920F920FB60F9211242F939B
:104A10003F934F935F936F937F938F939F93AF9346
:104A2000BF93EF93FF938091CF059091D0050097AE
:104A300011F00E944424FF91EF91BF91AF919F919B
:104A40008F917F916F915F914F913F912F910F9037
:104A50000FBE0F901F901895CF92DF92EF92FF92AA
:104A60000F931F93CF93DF93EC017A018B011A8E82
:104A7000198E188E1F8A1E8A1D8A1C8A1B8A20E0A6
:104A800030E06901CC0CDD1CC20ED31EB601660FEE
:104A9000771F660F771FAB01445C5E4FFA0185916B
:104AA0009591A591B4918E159F05A007B107E9F4E2
:104AB000FB01E05CFE4F859194919C8B8B8BFB01FD
:104AC000EE5BFE4F859194919E8B8D8BFB01EC5B91
:104AD000FE4F85919491988F8F8BFB01EA5BFE4F7F
:104AE000859194919A8F898F06C02F5F3F4F2D300B
:104AF000310509F0C6CF8F89988D892B09F449C0FB
:104B00004C85463108F03DC090916800483010F463
:104B100084E005C04E3010F082E001C081E0892BB6
:104B200080936800483028F4EDE6F0E0ADE6B0E0B0
:104B30000BC04E3028F0ECE6F0E0ACE6B0E004C08C
:104B4000EBE6F0E0ABE6B0E05081483040F481E0C5
:104B500090E002C0880F991F4A95E2F710C0242FF9
:104B600030E04E3018F42850304002C02E50304013
:104B700081E090E002C0880F991F2A95E2F7852B0B
:104B80008C93898D9A8D20E001972FEF8F3F9207AC
:104B9000D9F78091CF059091D0058C179D0781F0B2
:104BA0008B8D8E7F8B8F9FB7F8941092110680911A
:104BB000110680931206D093D005C093CF059FBFF6
:104BC000DF91CF911F910F91FF90EF90DF90CF90E9
:104BD0000895FC014485463180F5483028F4EDE61F
:104BE000F0E0ADE6B0E00BC04E3028F4EBE6F0E0CC
:104BF000ABE6B0E004C0ECE6F0E0ACE6B0E050813B
:104C0000483040F481E090E002C0880F991F4A9537
:104C1000E2F710C0242F30E04E3018F42850304016
:104C200002C02E50304081E090E002C0880F991FF2
:104C30002A95E2F7809585238C930895FC0182E004
:104C400093E091838083CF010E94E925089520910C
:104C5000CF053091D0052817390731F4909112060D
:104C600080911106981719F42FEF3FEF0FC0E091D4
:104C70001206F0E0EF52FA4F20818091120690E088
:104C800001968F7390708093120630E0C9010895E9
:104C90002091CF053091D0052817390719F020E071
:104CA00030E00EC0809111062091120690E0805CE9
:104CB0009F4F821B910960E470E00E94C6379C01FF
:104CC000C90108950F931F93DC0159968D919C9112
:104CD0005A97892B49F481E090E013969C938E9328
:104CE000129720E030E097C00FB7F8945B968C9154
:104CF0005B975196ED91FC91529750962C9150975D
:104D000081FF8DC08081822B808359968D919C91EB
:104D10005A97059620E001972FEF8F3F9207D9F71A
:104D20005B968C915B9781FF35C031E040E050E0AD
:104D300070E010E0832F90E0862397235196ED9149
:104D4000FC91529750962C915097892B29F0808195
:104D500020952823208303C08081822B808359964D
:104D60008D919C915A97212F01972FEF8F3F92079A
:104D7000D9F7330F4F5F5F4F48305105D9F6519641
:104D8000ED91FC915297908150968C91509780951F
:104D9000892333C031E040E050E070E010E0832F21
:104DA00090E0862397235196ED91FC91529750966F
:104DB0002C915097892B21F08081822B808304C015
:104DC000808120952823208359968D919C915A9714
:104DD000212F01972FEF8F3F9207D9F7330F4F5FA6
:104DE0005F4F48305105D9F65196ED91FC9152979D
:104DF000808150969C915097892B80830FBF599644
:104E00008D919C915A9720E001972FEF8F3F920749
:104E1000D9F721E030E0C9011F910F9108958081F9
:104E200020952823208371CF2091CF053091D00584
:104E30002817390749F49FB7F8941092110680910A
:104E40001106809312069FBF08952091CF053091DF
:104E5000D0052817390731F4909112068091110678
:104E6000981719F42FEF3FEF0AC0E0911206F0E017
:104E7000EF52FA4F8081282F332727FD3095C90143
:104E800008951F93CF93DF93EC01162F862F60E0D8
:104E90000E9456328B8D81FD04C0812F61E00E94FB
:104EA00095321C87212F30E0C901895B994FFC01A5
:104EB00084918D872D5C394FF9016491E62FF0E0E4
:104EC000EE0FFF1FE75DF94F859194919F878E87C5
:104ED000DF91CF911F910895FF920F931F938C0143
:104EE000F62E862F61E00E9456328F2D61E00E94DF
:104EF00095328F2D90E0FC01E95BF94FE491D801E8
:104F00005096EC9350978D5C994FFC016491E62F7D
:104F1000F0E0EE0FFF1FE15EF94F859194915296FC
:104F20009C938E9351971F910F91FF900895FF923C
:104F30000F931F938C01F62EFC011382128288EED0
:104F400093E0A0E0B0E084839583A683B78382E0FA
:104F500093E091838083148A138A168A158A108EAF
:104F6000178A128E118E838D2170220F8C7F822BD7
:104F7000838FC801642F0E946C27C8016F2D0E9487
:104F800041271F910F91FF9008950F938130910554
:104F900061F56F5F7F4F91F58CEA96E060E040E04D
:104FA00020E000E00E94FA3483E196E060EC48EAF9
:104FB00022EB02E30E94FA3489E196E060E570E0BA
:104FC0000E94A20A89E18093200610922306109283
:104FD000360610923D0610923F0680E996E062E0A8
:104FE00045E020E00E94972709C0892B39F46F5FC4
:104FF0007F4F21F480E996E00E941E260F910895CC
:1050000080E090E06FEF7FEF0E94C527089581E078
:1050100090E06FEF7FEF0E94C5270895CF93DF9355
:10502000EC0180918606882351F083E497E06DECD3
:1050300075E00E94F235CE016AEB75E009C083E4A9
:1050400097E067EA75E00E94F235CE0163E975E00A
:105050000E94F235DF91CF910895DF93CF9300D076
:1050600000D0CDB7DEB783E497E064E175E00E943D
:10507000F23581E089838A831B821C8283E061E0B0
:105080000E94953284E491E3BE016F5F7F4F44E05C
:105090000E94542383E060E00E9495320F900F90AD
:1050A0000F900F90CF91DF910895DF93CF9300D0B1
:1050B00000D000D0CDB7DEB783E497E06EE275E0B4
:1050C0000E94F235DE011196EEE0F3E086E00190F9
:1050D0000D928150E1F783E061E00E94953284E413
:1050E00091E3BE016F5F7F4F46E00E94542383E04F
:1050F00060E00E94953226960FB6F894DEBF0FBE90
:10510000CDBFCF91DF910895CF93DF93EC018091D4
:105110008606882371F083E497E061E875E00E94D9
:10512000F235CE016EE675E00E94F2350E945528F8
:105130000DC083E497E06BE575E00E94F235CE0187
:1051400067E475E00E94F2350E942D28DF91CF912F
:105150000895EF92FF920F931F930091A102109177
:10516000A2024EECE42E45E0F42EC70164E670E0A6
:10517000402F0E943824012F110F110BC70165E643
:1051800070E0402F0E94382400918C0610918D060B
:10519000C70166E670E0402F0E943824012F110FEE
:1051A000110BC70167E670E0402F0E943824009180
:1051B0009D0210919E02C70168E670E0402F0E9498
:1051C0003824012F110F110BC70169E670E0402F41
:1051D0000E9438240091820610918306C7016AE676
:1051E00070E0402F0E943824012F110F110BC701CE
:1051F0006BE670E0402F0E9438241F910F91FF90C2
:10520000EF9008950F931F93DF93CF9300D0CDB706
:10521000DEB780916B0790916C07009711F08C01BD
:1052200002C00FE617E083E497E06FE274E00E94AB
:10523000A735BE016F5F7F4F601B710B83E497E062
:105240004AE050E00E9418370F900F90CF91DF9105
:105250001F910F910895EF92FF920F931F937C017E
:10526000FC0140810EEC15E0642F70E0660F771FA3
:10527000660F771FC8010E943824F701608170E033
:10528000660F771F660F771F6F5F7F4FC8014181E1
:105290000E943824F701608170E0660F771F660F67
:1052A000771F6E5F7F4FC80142810E943824F7014B
:1052B000608170E0660F771F660F771F6D5F7F4F0D
:1052C000C80143810E94382403E417E0C80161E665
:1052D00074E00E94F235C80167E574E00E94A735CA
:1052E000C801F70160814AE050E00E94A736C8017A
:1052F00061E574E00E94A735C801F70161814AE0C9
:1053000050E00E94A736C80169E474E00E94A73506
:10531000C801F70162814AE050E00E94A736C80147
:1053200061E474E00E94A735C801F70163814AE097
:1053300050E00E94A7361F910F91FF90EF900895C3
:10534000FF920F931F930EEC15E0C80165E670E025
:105350000E943124F82EC80164E670E00E943124D6
:105360003F2D20E090E0282B392B3093A202209390
:10537000A102C80167E670E00E943124F82EC8013E
:1053800066E670E00E9431243F2D20E090E0282B5B
:10539000392B30938D0620938C06C80169E670E0A6
:1053A0000E943124F82EC80168E670E00E94312482
:1053B0003F2D20E090E0282B392B30939E02209344
:1053C0009D02C8016BE670E00E943124F82EC801EE
:1053D0006AE670E00E9431243F2D20E090E0282B07
:1053E000392B30938306209382061F910F91FF90F3
:1053F00008955F926F927F928F929F92AF92BF9229
:10540000CF92DF92EF92FF920F931F93DF93CF9390
:10541000CDB7DEB7AA970FB6F894DEBF0FBECDBFEB
:1054200068EE73E080E090E00E94A03183E497E0B2
:1054300040E855E260E070E00E94733368EE73E08C
:1054400080E090E00E94A03183E497E06CE274E099
:105450000E94F23583E497E069E174E00E94F2353E
:105460000E94022968EE73E080E090E00E94A03183
:105470008AE061E00E9456328AE061E00E94953243
:1054800068EE73E080E090E00E94A03183E497E052
:1054900067E074E00E94F23583E061E00E945632DA
:1054A00080E996E040E855E260E070E00E942C253B
:1054B00083E497E066EF73E00E94F23568EE73E0F4
:1054C00080E090E00E94A03183E497E06EED73E00D
:1054D0000E94F23568EE73E080E090E00E94A03117
:1054E0008FE196E064E044E00E94C31D882321F42C
:1054F0008FE196E00E94581E68EE73E080E090E035
:105500000E94A03183E497E06FEB73E00E94F235D4
:10551000198A1B8A188A1F868AEF92E09E878D87D8
:10552000CE01419660E071E041E00E949E1D88231B
:1055300031F48FE196E06AE071E00E94741ECE01C2
:1055400041960E94881883E497E06FE973E00E9417
:10555000F23568EE73E080E090E00E94A03183E4D1
:1055600097E067E873E00E94A7350E94A02983E4D2
:1055700097E06CE773E00E94A7356091A1027091FB
:10558000A20283E497E04AE050E00E94183783E4E7
:1055900097E061E773E00E94A73560918C067091F7
:1055A0008D0683E497E04AE050E00E94183783E4D8
:1055B00097E065E673E00E94A73560919D027091C7
:1055C0009E0283E497E04AE050E00E94183783E4AB
:1055D00097E069E573E00E94A735609182067091BB
:1055E000830683E497E04AE050E00E94183768EEB3
:1055F00073E080E090E00E94A03183E497E063E4F0
:1056000073E00E94A73588E293E09A8389838091B2
:10561000150690911606A0911706B09118068B8377
:105620009C83AD83BE8380E493E065E972E0AE01C4
:105630004F5F5F4F0E944C0889E196E00E94080C82
:1056400083E497E060E473E00E94F23568EE73E073
:1056500080E090E00E94A031CC24DD2441E0A42E23
:10566000B12C32E0832E26E0522E97E0692E712C69
:105670006C0E7D1EC114D10409F4D7C081E0C81698
:10568000D10411F401E0D2C092E0C916D10419F49A
:1056900012E000E011C0E3E0CE16D10409F4C8C066
:1056A000F4E0CF16D10411F413E00BC085E0C81666
:1056B000D10411F413E00CC096E0C916D10419F41A
:1056C00014E000E006C0E7E0CE16D10411F414E0C7
:1056D00001E08EEC95E0B5010E943124F82E08948B
:1056E000A11CB11C8EEC95E0B5010E943124982ECE
:1056F0000894A11CB11C8EEC95E0B5010E943124E8
:10570000E82E83E497E064E373E00E94A73583E426
:1057100097E0612F4AE050E00E94953683E497E0DD
:1057200069E273E00E94A73583E497E0602F4AE0C6
:1057300050E00E94953683E497E067E273E00E94B0
:10574000A73583E497E06F2D4AE050E00E9495363C
:1057500083E497E065E273E00E94A73583E497E075
:10576000692D4AE050E00E94953683E497E063E2B9
:1057700073E00E94A73583E497E06E2D4AE050E085
:105780000E94953683E497E06EE173E00E94A735AE
:10579000F301852D11928A95E9F788861F83F98692
:1057A0009A86EB860C8783E061E00E94953284E460
:1057B00091E3B30146E00E94542383E060E00E943D
:1057C000953283E497E06BE271E00E94373764EF33
:1057D00071E080E090E00E94A0310894C11CD11CCF
:1057E000E2E0F0E0AE0EBF1EF8E0CF16D10409F003
:1057F00041CF83E497E060E173E00E94F235AA961E
:105800000FB6F894DEBF0FBECDBFCF91DF911F91D1
:105810000F91FF90EF90DF90CF90BF90AF909F904F
:105820008F907F906F905F90089500E011E03ECFE1
:1058300012E04ECF0F931F93CF93DF93182F092FB2
:1058400060E075E00E94F235812F902F6DEE74E0DC
:105850000E94A735812F902F6FEA74E00E94A73530
:10586000C0E0D0E0812F902F66EA74E00E94A73557
:105870008EEC95E0BE010E943124682F812F902F7D
:105880004AE050E00E949536812F902F6CE974E039
:105890000E94A73521968EEC95E0BE010E9431242E
:1058A000682F812F902F4AE050E00E949536812F7B
:1058B000902F62E974E00E94A73521968EEC95E066
:1058C000BE010E943124682F812F902F4AE050E0C2
:1058D0000E949536812F902F68E874E00E94A735CA
:1058E00021968EEC95E0BE010E943124682F812F15
:1058F000902F4AE050E00E949536812F902F6DE75F
:1059000074E00E94A7352196C032D10509F0AACFD4
:10591000812F902F64E774E00E94F235DF91CF91E0
:105920001F910F910895CF93DF93482F292FA82F10
:10593000B92FFD0101900020E9F731975E2F581B28
:10594000EB0109900020E9F72197C61BD70B852FA3
:10595000992787FD90958C179D0708F1842F922F2A
:105960009C01D90120E017C0E22FFF27E7FDF09549
:10597000E60FF71F9C918081981711F020E00AC074
:105980002F5F822F992787FD9095C817D90711F4AB
:1059900081E006C011968A2F841B85172CF380E0C6
:1059A000DF91CF9108950F931F93182F092F6CEF5C
:1059B00075E00E94A73560918A0670918B06812F51
:1059C000902F4AE050E00E940537812F902F67EF1B
:1059D00075E00E94F235812F902F64EE75E00E94F1
:1059E000A7356091800670918106812F902F4AE043
:1059F00050E00E940537812F902F6FED75E00E94D7
:105A0000F2351F910F910895AF92BF92CF92DF921E
:105A1000EF92FF920F931F93DF93CF93CDB7DEB733
:105A2000CB59D0400FB6F894DEBF0FBECDBF8091EA
:105A300088060E9434329C0190938F0680938E06D4
:105A40008091A1029091A202281739073CF430936B
:105A5000A2022093A10281E08093870680918C06A8
:105A600090918D06821793073CF430938D06209316
:105A70008C0681E08093870600D000D0B90188278A
:105A800077FD8095982F2091A1023091A2024427A2
:105A900037FD4095542FE0908C06F0908D0600273E
:105AA000F7FC0095102FE4E6AE2EB12CC12CD12CC2
:105AB000EDB7FEB7A182B282C382D482AA24BB24EE
:105AC00065010E944A3770938B0660938A060F9097
:105AD0000F900F900F9080919B020E9434329C0196
