:100000000C94B3000C94DB000C94DB000C940803FC
:100010000C9432030C945C030C94DB000C94DB0016
:100020000C94DB000C94DB000C94DB000C94DB00E4
:100030000C94DB000C94DB000C94DB000C94DB00D4
:100040000C94410D0C94DB000C944F0F0C949D0FFD
:100050000C94DB000C94DB000C94DB000C94DB00B4
:100060000C94DB000C94DB0000C2010001001100C5
:1000700011000C0000E100000A002500250021000D
:10008000009600001900390039003600127A00008D
:100090001F004600460044008070000022004D0012
:1000A0004D004A00004B00003600750075007200DC
:1000B000403800004A009C009C0099008025000008
:1000C0007200EC00EC00E900C0120000E900DA0167
:1000D000DA01D70160090000D701B603B603B30304
:1000E000B0040000B3036E076E076B0758020000F0
:1000F0006E07DC0EDC0ED80E2C010000DC0EC11DDC
:10010000C11DBE1D00000000240027002A000000C1
:100110000000250028002B0000000000230026001E
:10012000290004040404040404040202020202027A
:1001300003030303030301020408102040800102AB
:10014000040810200102040810200000000700022B
:10015000010000030406000000000000000082020D
:100160000E070911070711241FBECFEFD8E0DEBF2D
:10017000CDBF12E0A0E0B1E0E8E2F6E202C00590F7
:100180000D92A232B107D9F713E0A2E2B2E001C0AA
:100190001D92A03EB107E1F711E0C4E6D1E004C032
:1001A0002297FE010E940313CE35D107C9F70E94A2
:1001B0005F110C9407130C940000CF93DF93BC01E4
:1001C0008230910510F462E070E0A091DE03B091FE
:1001D000DF03ED01E0E0F0E040E050E021C0888185
:1001E00099818617970769F48A819B81309719F066
:1001F0009383828304C09093DF038093DE03FE0128
:1002000034C06817790738F44115510519F084177F
:10021000950708F4AC01FE018A819B819C01E901EC
:100220002097E9F641155105A9F1CA01861B970BE4
:10023000049708F4BA01E0E0F0E02AC08D919C91A7
:10024000119784179507F9F46417750781F41296CE
:100250008D919C911397309719F09383828304C0FA
:100260009093DF038093DE03FD0132964CC0CA01F8
:10027000861B970BFD01E80FF91F6193719302979D
:100280008D939C9340C0FD01828193819C01D90193
:100290001097A1F68091DC039091DD03892B41F446
:1002A0008091E6019091E7019093DD038093DC0358
:1002B0004091E8015091E9014115510541F44DB7D4
:1002C0005EB78091E4019091E501481B590B2091A4
:1002D000DC033091DD03CA01821B930B861797075D
:1002E00080F0AB014E5F5F4F8417950750F0420FCF
:1002F000531F5093DD034093DC03F9016193719325
:1003000002C0E0E0F0E0CF01DF91CF910895CF93FC
:10031000DF93009709F450C0EC0122971B821A82E8
:10032000A091DE03B091DF03109709F140E050E0A7
:10033000AC17BD0708F1BB83AA83FE01219131915F
:10034000E20FF31FAE17BF0779F48D919C911197BF
:10035000280F391F2E5F3F4F3983288312968D91C6
:100360009C9113979B838A834115510571F4D09317
:10037000DF03C093DE0320C012968D919C911397EA
:10038000AD01009711F0DC01D3CFFA01D383C28312
:1003900021913191E20FF31FCE17DF0769F48881B5
:1003A0009981280F391F2E5F3F4FFA013183208337
:1003B0008A819B8193838283DF91CF910895DF921D
:1003C000EF92FF920F931F93CF93DF93EC017B018A
:1003D000101611062CF0D22E032F20E030E002C0C0
:1003E000D02E012FC05CDF4FA881B981C054D0400E
:1003F000FE0160E070E007C0808191813896892B12
:1004000041F06F5F7F4F6A177B07B4F3EE24FF2440
:1004100022C0E3E0660F771FEA95E1F7DE01A60F41
:10042000B71F1196FC92EE92FE01E60FF71F538361
:10043000428317963C932E931697FB013496EC0F4C
:10044000FD1FD0820183D701ED91FC910190F081D5
:10045000E02DC7010995C701DF91CF911F910F9141
:10046000FF90EF90DF900895DF92EF92FF920F934D
:100470001F93CF93DF93D62EEC0100E010E050E401
:10048000E52EF12CE80EF91E1DC0A881B981109748
:10049000F9F0ED91FC9111972E813F81C901880FF0
:1004A000991F820F931F6A817B81680F791F4C818E
:1004B0005D810084F185E02DCD012D2D09950F5F23
:1004C0001F4F2896F7018081918108171907ECF2D8
:1004D000DF91CF911F910F91FF90EF90DF900895E2
:1004E000FC01E05CFF4F88E090E0819391938FEFF7
:1004F0008083E254F040CF0160E040E450E00E948D
:100500009302089582E292E00E9470028CE192E3ED
:10051000A8EAB0E08093650290936602A093670218
:10052000B09368020895DC0140FF03C001C06D93E1
:100530006D934250E0F75040D0F708950F931F930A
:10054000CF93DF93FC01738D76957170A685B78587
:100550009585772329F08C91892309F454C004C030
:100560008C91892309F04FC08389948920E00197F9
:100570002FEF8F3F9207D9F7C589D689A685B78512
:10058000158560E031E040E050E000E0CE01202F32
:1005900001972FEF8F3F9207D9F78C91812311F0AC
:1005A000632B03C0832F80956823330F4F5F5F4F0A
:1005B0004830510559F78789908D20E001972FEF3A
:1005C0008F3F9207D9F7711160958091AB0220910E
:1005D000AC0290E001968F73907030E08217930721
:1005E00079F0E091AB02F0E0E559FD4F6083809136
:1005F000AB0290E001968F7390708093AB0203C0C2
:10060000838D8160838FDF91CF911F910F9108952A
:100610001F920F920FB60F9211242F933F934F9377
:100620005F936F937F938F939F93AF93BF93EF935A
:10063000FF938091690290916A02009711F00E94E5
:100640009E02FF91EF91BF91AF919F918F917F910A
:100650006F915F914F913F912F910F900FBE0F902F
:100660001F9018951F920F920FB60F9211242F937F
:100670003F934F935F936F937F938F939F93AF932A
:10068000BF93EF93FF938091690290916A02009764
:1006900011F00E949E02FF91EF91BF91AF919F9147
:1006A0008F917F916F915F914F913F912F910F901B
:1006B0000FBE0F901F9018951F920F920FB60F92BA
:1006C00011242F933F934F935F936F937F938F9357
:1006D0009F93AF93BF93EF93FF93809169029091A3
:1006E0006A02009711F00E949E02FF91EF91BF9164
:1006F000AF919F918F917F916F915F914F913F91BA
:100700002F910F900FBE0F901F901895CF92DF92F0
:10071000EF92FF920F931F93CF93DF93EC017A0137
:100720008B011A8E198E188E1F8A1E8A1D8A1C8AAA
:100730001B8A20E030E06901CC0CDD1CC20ED31E08
:10074000B601660F771F660F771FAB0148595F4FE1
:10075000FA0185919591A591B4918E159F05A007F9
:10076000B107E9F4FB01E459FF4F859194919C8B0B
:100770008B8BFB01E259FF4F859194919E8B8D8B62
:10078000FB01E059FF4F85919491988F8F8BFB016E
:10079000EE58FF4F859194919A8F898F06C02F5FF5
:1007A0003F4F2D30310509F0C6CF8F89988D892BA9
:1007B00009F449C04C85463108F03DC0909168006D
:1007C000483010F484E005C04E3010F082E001C0E3
:1007D00081E0892B80936800483028F4EDE6F0E052
:1007E000ADE6B0E00BC04E3028F0ECE6F0E0ACE651
:1007F000B0E004C0EBE6F0E0ABE6B0E0508148309A
:1008000040F481E090E002C0880F991F4A95E2F71A
:1008100010C0242F30E04E3018F42850304002C071
:100820002E50304081E090E002C0880F991F2A9539
:10083000E2F7852B8C93898D9A8D20E001972FEF1D
:100840008F3F9207D9F78091690290916A028C17C5
:100850009D0781F08B8D8E7F8B8F9FB7F8941092C0
:10086000AB028091AB028093AC02D0936A02C0933A
:1008700069029FBFDF91CF911F910F91FF90EF9081
:10088000DF90CF900895FC014485463180F54830D3
:1008900028F4EDE6F0E0ADE6B0E00BC04E3028F411
:1008A000EBE6F0E0ABE6B0E004C0ECE6F0E0ACE68E
:1008B000B0E05081483040F481E090E002C0880F01
:1008C000991F4A95E2F710C0242F30E04E3018F4FB
:1008D0002850304002C02E50304081E090E002C0ED
:1008E000880F991F2A95E2F7809585238C930895A8
:1008F000FC0184EF91E091838083CF010E94430447
:1009000008952091690230916A022817390731F45D
:100910009091AC028091AB02981719F42FEF3FEF42
:100920000FC0E091AC02F0E0E559FD4F20818091CD
:10093000AC0290E001968F7390708093AC0230E02F
:10094000C90108952091690230916A022817390778
:1009500019F020E030E00EC08091AB022091AC0293
:1009600090E0805C9F4F821B910960E470E00E94E0
:100970009D129C01C90108950F931F93DC015996A4
:100980008D919C915A97892B49F481E090E01396C0
:100990009C938E93129720E030E097C00FB7F894A5
:1009A0005B968C915B975196ED91FC915297509686
:1009B0002C91509781FF8DC08081822B8083599626
:1009C0008D919C915A97059620E001972FEF8F3FCC
:1009D0009207D9F75B968C915B9781FF35C031E028
:1009E00040E050E070E010E0832F90E086239723F2
:1009F0005196ED91FC91529750962C915097892BDE
:100A000029F0808120952823208303C08081822BB8
:100A1000808359968D919C915A97212F01972FEFA2
:100A20008F3F9207D9F7330F4F5F5F4F4830510523
:100A3000D9F65196ED91FC915297908150968C91F8
:100A400050978095892333C031E040E050E070E05A
:100A500010E0832F90E0862397235196ED91FC912F
:100A6000529750962C915097892B21F08081822BA0
:100A7000808304C0808120952823208359968D91FE
:100A80009C915A97212F01972FEF8F3F9207D9F70B
:100A9000330F4F5F5F4F48305105D9F65196ED91B6
:100AA000FC915297808150969C915097892B80831E
:100AB0000FBF59968D919C915A9720E001972FEF87
:100AC0008F3F9207D9F721E030E0C9011F910F91C4
:100AD0000895808120952823208371CF2091690279
:100AE00030916A022817390749F49FB7F894109299
:100AF000AB028091AB028093AC029FBF089520911E
:100B0000690230916A022817390731F49091AC02DA
:100B10008091AB02981719F42FEF3FEF0AC0E091D4
:100B2000AC02F0E0E559FD4F8081282F332727FDE7
:100B30003095C90108951F93CF93DF93EC01162FD1
:100B4000862F60E00E94BB0E8B8D81FD04C0812F3B
:100B500061E00E94FA0E1C87212F30E0C9018A5CF7
:100B60009E4FFC0184918D872E5D3E4FF90164916B
:100B7000E62FF0E0EE0FFF1FE85EFE4F85919491A7
:100B80009F878E87DF91CF911F910895FF920F93DA
:100B90001F938C01F62E862F61E00E94BB0E8F2DD5
:100BA00061E00E94FA0E8F2D90E0FC01EA5CFE4F9E
:100BB000E491D8015096EC9350978E5D9E4FFC01C6
:100BC0006491E62FF0E0EE0FFF1FE25FFE4F85918C
:100BD000949152969C938E9351971F910F91FF90F1
:100BE0000895FF920F931F938C01F62EFC01138240
:100BF000128288EE93E0A0E0B0E084839583A68320
:100C0000B78384EF91E091838083148A138A168AD4
:100C1000158A108E178A128E118E838D2170220FE5
:100C20008C7F822B838FC801642F0E94C605C80168
:100C30006F2D0E949B051F910F91FF9008952F9299
:100C40003F924F925F926F927F928F929F92AF925C
:100C5000BF92CF92DF92EF92FF920F931F93DF9399
:100C6000CF9300D000D0CDB7DEB71C012B015C8341
:100C70004B832A83370148010E94890D6B017C0157
:100C8000198259C0F1010995181619060CF053C0C4
:100C9000F2010995823029F0833061F4AA24A394EB
:100CA0004AC00E94890D6B017C0181E08983AA24DE
:100CB00000E040C09981992309F43DC090E09C0177
:100CC00044E0359527954A95E1F7809590958F708A
:100CD000907028173907D9F5112319F0B22E10E0BA
:100CE0002AC0B29490EFB922B22AAA20D1F00EC045
:100CF000308198E0832F8227269580FD252791500B
:100D000019F43196415007C03695F4CFEB81FC8140
:100D1000402F20E05CE8442359F72B15C9F4402FFD
:100D200017C0EA810E1798F4EB81FC81E00FF11DEA
:100D3000B0820F5F11E00E94890D6C197D098E0948
:100D40009F09661577058805990508F49BCF40E053
:100D5000842F0F900F900F900F90CF91DF911F91E4
:100D60000F91FF90EF90DF90CF90BF90AF909F904A
:100D70008F907F906F905F904F903F902F9008954D
:100D8000FC01A081B1812D913C91F9010995089553
:100D900081E008950895FC01249A80E1828385E230
:100DA00090E0948383830895DF93CF9300D00F92D4
:100DB000CDB7DEB7DC01AB01ED91FC910680F78188
:100DC000E02D19821A821B82BE016F5F7F4F20E0E7
:100DD00009950F900F900F90CF91DF91089581307A
:100DE000910559F46F5F7F4F89F48DE093E06AE0DD
:100DF00049E020E00E94F1050895892B39F46F5FE6
:100E00007F4F21F48DE093E00E947804089580E004
:100E100090E06FEF7FEF0E94EF06089581E090E091
:100E20006FEF7FEF0E94EF060895BC018091EA0109
:100E30000E945B0E8091EE02882321F08091EC01EC
:100E400061E003C08091EC0160E00E94FA0E089519
:100E50000F931F938C010E94970D9B01AC01F80129
:100E600080819181A281B381281B390B4A0B5B0BD6
:100E7000223331054105510534F482E390E0821BB1
:100E8000930B0E94160E1F910F910895CF92DF923F
:100E9000EF92FF920F931F93CF93DF936C01162F66
:100EA000072FEA01E22E05960E942807F894812F69
:100EB000902FFC01BE01660F771F6C0F7D1F6E0F18
:100EC0007F1F55B1506185B18F7E85B920813E2D40
:100ED000239F212DE4C095E055B90014001400149F
:100EE0000014001427FF85B9001400140014001426
:100EF000001485B900140014220F915069F70014F2
:100F000055B90014001400140014001427FF85B90B
:100F10000014001400140014001485B90014001407
:100F2000001400140014001455B900140014001427
:100F30000014001426FF85B90014001400140014D6
:100F4000001485B941813E2D439F412D55B90014B0
:100F5000001400140014001425FF85B900140014B7
:100F600000140014001485B90014001400140014B7
:100F7000001495E055B90014001400140014001476
:100F800047FF85B90014001400140014001485B93B
:100F900000140014440F915069F7001455B900145F
:100FA000001400140014001447FF85B90014001445
:100FB00000140014001485B9001400140014001467
:100FC0000014001455B90014001400140014001487
:100FD00046FF85B90014001400140014001485B9EC
:100FE00032812E2D329F312D55B90014001400147A
:100FF0000014001445FF85B90014001400140014F7
:10100000001485B90014001400140014001495E0B5
:1010100055B90014001400140014001437FF85B9EA
:101020000014001400140014001485B900140014F6
:10103000330F915069F7001455B9001400140014CF
:101040000014001437FF85B90014001400140014B4
:10105000001485B90014001400140014339655B917
:101060000014001400140014001436FF85B9001495
:10107000001400140014001485B920814E2D249F03
:10108000212D55B90014001400140014001435FF6C
:1010900085B90014001400140014001485B9E61773
:1010A000F70708F418CF1124E0902D03F0902E03D9
:1010B00000912F031091300388EC91E0FC01CE9F4A
:1010C000C001CF9F900DDE9F900D112460E170E074
:1010D0000E949D12882777FD8095982F28EE33E097
:1010E00040E050E00E94D212E20EF31E041F151FD2
:1010F000E0922D03F0922E0300932F031093300300
:1011000078940E94970DF601658376838783908794
:10111000DF91CF911F910F91FF90EF90DF90CF90D3
:101120000895AF92BF92CF92DF92EF92FF920F930A
:101130001F93CF93DF935C01EB016A01122F059699
:101140000E942807F894B601660F771F6C0D7D1D6D
:101150006C0F7D1F55B1506185B18F7E85B9A88117
:101160002A2F219F212DFE01E4C095E055B90014DE
:10117000001400140014001427FF85B90014001493
:1011800000140014001485B900140014220F9150AB
:1011900069F7001455B90014001400140014001469
:1011A00027FF85B90014001400140014001485B939
:1011B00000140014001400140014001455B9001495
:1011C000001400140014001426FF85B90014001444
:1011D00000140014001485B949810014419F412D69
:1011E00055B90014001400140014001425FF85B92B
:1011F0000014001400140014001485B90014001425
:1012000000140014001495E055B9001400140014E3
:101210000014001447FF85B90014001400140014D2
:10122000001485B900140014440F915069F700149C
:1012300055B90014001400140014001447FF85B9B8
:101240000014001400140014001485B900140014D4
:10125000001400140014001455B9001400140014F4
:101260000014001446FF85B9001400140014001483
:10127000001485B93A810014319F312D55B90014FD
:10128000001400140014001445FF85B90014001464
:1012900000140014001485B9001400140014001484
:1012A000001495E055B90014001400140014001443
:1012B00037FF85B90014001400140014001485B918
:1012C00000140014330F915069F7001455B900143D
:1012D000001400140014001437FF85B90014001422
:1012E00000140014001485B9001400140014001434
:1012F000339655B90014001400140014001436FF7E
:1013000085B90014001400140014001485B90014E9
:101310002A2F219F212D55B9001400140014001408
:10132000001435FF85B900140014001400140014D3
:1013300085B9E617F70708F418CF1124E0902D03BC
:10134000F0902E0300912F031091300388EC91E070
:101350009C01C29EC001C39E900DD29E900D11248F
:1013600060E170E00E949D12882777FD8095982F9C
:1013700028EE33E040E050E00E94D212E20EF31E6D
:10138000041F151FE0922D03F0922E0300932F03EC
:101390001093300378940E94970DF501658376834E
:1013A00087839087DF91CF911F910F91FF90EF90EE
:1013B000DF90CF90BF90AF900895EF92FF920F9380
:1013C0001F93CF93DF93E090EE01F090EF0189E05F
:1013D00090E00E946E11FC01158216821782108621
:1013E00084E092E091838083C701BF014DEA52E01F
:1013F0002FE030E000E010E00E94DF018AEB93E094
:1014000060E071E00E946B128091EC0161E00E944B
:10141000BB0E8091EC0160E00E94FA0E8091EA011F
:1014200060E070E00E945B0E80E090E060E070E0C1
:1014300040E050E00E941507CDEAD2E087010E5B44
:101440001F4F188219821A82C701F80160810E9419
:1014500034022396F2E0CA3DDF0799F78AEB93E066
:1014600040E855E260E070E00E94D80F8AEB93E01C
:101470006CE071E00E946B1268EE73E080E090E037
:101480000E94BD0D8AEB93E06EE171E00E946B1249
:10149000FE01BD97108211821282339622E0EA3D4E
:1014A000F207C1F78AEB93E06AE271E00E946B12E7
:1014B0008DE093E040E855E260E070E00E94860332
:1014C00088E061E00E94BB0E8AEB93E065E371E087
:1014D0000E946B12E9EEF2E098E888E29083818343
:1014E0001282339622E0E83FF207C1F7DF91CF91F5
:1014F0001F910F91FF90EF900895CF92DF92EF929E
:10150000FF920F931F93CF93DF9380910C0390E092
:10151000FC01EE0FFF1FE80FF91FDF01A751BD4FC0
:10152000E850FD4F90818C91981710F0CC2408C0A2
:101530008AEB93E063E471E00E946B12CC24C394C5
:1015400080910C0390E0FC01EE0FFF1FE80FF91FE4
:10155000DF01A751BD4FE850FD4F90818C91891755
:1015600010F0DD2408C08AEB93E06AE471E00E9489
:101570006B12DD24D39480910C0390E0FC01EE0FFC
:10158000FF1FE80FF91FDF01A751BD4FE850FD4FC6
:10159000918111968C91981710F0EE2408C08AEB77
:1015A00093E063E571E00E946B12EE24E394809176
:1015B0000C0390E0FC01EE0FFF1FE80FF91FDF01A5
:1015C000A751BD4FE850FD4F918111968C9189171D
:1015D00010F0FF2408C08AEB93E06CE571E00E94F4
:1015E0006B12FF24F39480910C0390E0FC01EE0F4A
:1015F000FF1FE80FF91FDF01A751BD4FE850FD4F56
:10160000928112968C91981710F000E007C08AEB37
:1016100093E067E671E00E946B1201E080910C0399
:1016200090E0FC01EE0FFF1FE80FF91FDF01A7514B
:10163000BD4FE850FD4F928112968C91891710F0A2
:1016400010E007C08AEB93E06FE671E00E946B1236
:1016500011E08AEB93E069E771E00E9468128AEB7F
:1016600093E060910C034AE050E00E944A1280919E
:101670000C0390E0FC01EE0FFF1FE80FF91FE8508C
:10168000FD4F8AEB93E060814AE050E00E944A12ED
:1016900080910C0390E0FC01EE0FFF1FE80FF91F93
:1016A000E751FD4F8AEB93E060814AE050E00E94F1
:1016B0004A128AEB93E063E871E00E946B12CC203F
:1016C00099F080910C0390E0FC01EE0FFF1FE80FF2
:1016D000F91FE850FD4F80818F5F80838AEB93E094
:1016E00067E871E00E946B12DD2099F080910C0395
:1016F00090E0FC01EE0FFF1FE80FF91FE850FD4FCF
:101700008081815080838AEB93E06FE871E00E94D2
:101710006B12EE2099F080910C0390E0FC01EE0F2B
:10172000FF1FE80FF91FE850FD4F81818F5F818314
:101730008AEB93E067E971E00E946B12FF2099F059
:1017400080910C0390E0FC01EE0FFF1FE80FF91FE2
:10175000E850FD4F8181815081838AEB93E061EAFB
:1017600071E00E946B12002399F080910C0390E0CD
:10177000FC01EE0FFF1FE80FF91FE850FD4F8281BB
:101780008F5F82838AEB93E06BEA71E00E946B12B9
:10179000112399F080910C0390E0FC01EE0FFF1FE4
:1017A000E80FF91FE850FD4F8281815082838AEB58
:1017B00093E064EB71E00E946B1280910C0388232C
:1017C00059F46091F9024091FA028091F80290E098
:1017D00070E050E00E94150780910C03813029F5DC
:1017E0000091EE011091EF01CDEAD2E082E4E82E03
:1017F000F12CE00EF11E80910C0390E0FC01EE0F45
:10180000FF1FE80FF91FE850FD4F80818883818119
:10181000898382818A83C801F70160810E94340232
:101820002396F2E0CA3DDF0731F780910C03C82F01
:10183000D0E020E0FE01EE0FFF1FEC0FFD1FDF01E7
:10184000A751BD4FE850FD4F90818C91981709F436
:1018500021E030E0FE01EE0FFF1FEC0FFD1FDF0166
:10186000A751BD4FE850FD4F918111968C9198176B
:1018700009F431E0232330E040E050E0FE01EE0FB8
:10188000FF1FEC0FFD1FDF01A751BD4FE850FD4FBB
:10189000928112968C91981711F441E050E0242324
:1018A0003523232B21F0C95FDC4F81E08883DF9152
:1018B000CF911F910F91FF90EF90DF90CF900895FF
:1018C0008DE093E00E94810408958DE093E00E94F2
:1018D000A2040895EF92FF920F931F93DF93CF938B
:1018E000CDB7DEB764970FB6F894DEBF0FBECDBF9D
:1018F00085E69CE060E67CE0AE014F5F5F4F23E150
:10190000E4EFEE2EE1E0FE2E012D112D0E941F06C8
:10191000882309F49BC065E070E080E090E00E94BD
:10192000BD0D8AEB93E06DEB71E00E946B12898133
:10193000833009F08BC08A81823009F466C083301D
:1019400009F47EC0813009F081C08B81882351F079
:10195000A9EEB2E0EAEDF2E083E001900D92815051
:10196000E1F706C01092E9021092EA021092EB022F
:101970008C81882351F0ACEEB2E0EDEDF2E083E033
:1019800001900D928150E1F706C01092EC02109286
:10199000ED021092EE028D81882351F0AFEEB2E09D
:1019A000E0EEF2E083E001900D928150E1F706C095
:1019B0001092EF021092F0021092F1028E818823B1
:1019C00051F0A2EFB2E0E3EEF2E083E001900D927D
:1019D0008150E1F706C01092F2021092F3021092C9
:1019E000F4028F81882351F0A5EFB2E0E6EEF2E039
:1019F00083E001900D928150E1F728C01092F5022A
:101A00001092F6021092F70221C08E818630F0F417
:101A100090E09C01220F331F280F391FF901E65275
:101A2000FD4F8B8180838C8181838D818283D9015D
:101A3000A751BD4F83E001900D928150E1F706C0A0
:101A40008AEB93E06EEC71E00E946B1264960FB625
:101A5000F894DEBF0FBECDBFCF91DF911F910F91E4
:101A6000FF90EF9008950E946A0C0E947D0A809179
:101A70000C038F5F80930C03853010F010920C03E1
:101A800008951F920F920FB60F9211242F933F9338
:101A90008F939F93AF93BF9380912D0390912E03CB
:101AA000A0912F03B0913003309131030196A11D15
:101AB000B11D232F2D5F2D3720F02D570196A11D2D
:101AC000B11D2093310380932D0390932E03A09397
:101AD0002F03B09330038091290390912A03A091A2
:101AE0002B03B0912C030196A11DB11D80932903F6
:101AF00090932A03A0932B03B0932C03BF91AF9133
:101B00009F918F913F912F910F900FBE0F901F903B
:101B100018958FB7F89420912D0330912E034091A2
:101B20002F03509130038FBFB901CA0108959FB7A9
:101B3000F8942091290330912A0340912B0350916E
:101B40002C0386B5A89B06C08F3F21F02F5F3F4F27
:101B50004F4F5F4F9FBF542F432F322F2227280F05
:101B6000311D411D511D82E0220F331F441F551F9F
:101B70008A95D1F7B901CA0108959B01AC017FB7DD
:101B8000F8948091290390912A03A0912B03B0919E
:101B90002C0366B5A89B05C06F3F19F00196A11DE7
:101BA000B11D7FBFBA2FA92F982F8827860F911DAF
:101BB000A11DB11D62E0880F991FAA1FBB1F6A9566
:101BC000D1F7BC012DC0FFB7F89480912903909103
:101BD0002A03A0912B03B0912C03E6B5A89B05C066
:101BE000EF3F19F00196A11DB11DFFBFBA2FA92F1C
:101BF000982F88278E0F911DA11DB11DE2E0880F3F
:101C0000991FAA1FBB1FEA95D1F7861B970B885E09
:101C10009340C8F2215030404040504068517C4FC2
:101C2000211531054105510571F60895019739F0E7
:101C3000880F991F880F991F02970197F1F7089550
:101C4000789484B5826084BD84B5816084BD85B597
:101C5000826085BD85B5816085BDEEE6F0E080815E
:101C600081608083E1E8F0E010828081826080837F
:101C7000808181608083E0E8F0E080818160808302
:101C8000E1EBF0E0808184608083E0EBF0E0808134
:101C900081608083EAE7F0E08081846080838081D6
:101CA000826080838081816080838081806880837E
:101CB0001092C10008951F93CF93DF93182FEB016B
:101CC00061E00E94BB0E209709F44AC0CF3FD105C6
:101CD00009F449C0E12FF0E0E65BFE4F84918330C8
:101CE000C1F0843028F4813051F08230B1F50CC05D
:101CF000863019F1873049F1843079F514C084B504
:101D0000806884BDC7BD33C084B5806284BDC8BD52
:101D10002EC080918000806880938000D0938900DD
:101D2000C093880024C080918000806280938000EE
:101D3000D0938B00C0938A001AC08091B000806855
:101D40008093B000C093B30012C08091B000806255
:101D50008093B000C093B4000AC0C038D1051CF411
:101D6000812F60E002C0812F61E00E94FA0EDF91B6
:101D7000CF911F910895CF93DF93482F50E0CA0170
:101D80008A5C9E4FFC0134914E5D5E4FFA01849156
:101D9000882369F190E0880F991FFC01EC5FFE4FEA
:101DA000A591B491FC01E25FFE4FC591D4916623E9
:101DB00051F42FB7F8948C91932F909589238C939D
:101DC000888189230BC0623061F42FB7F8948C911D
:101DD000932F909589238C938881832B88832FBFA1
:101DE00006C09FB7F8948C91832B8C939FBFDF9193
:101DF000CF910895482F50E0CA01865B9E4FFC01A9
:101E00002491CA018A5C9E4FFC0194914E5D5E4F05
:101E1000FA013491332309F440C0222351F12330D5
:101E200071F0243028F42130A1F0223011F514C0D3
:101E30002630B1F02730C1F02430D9F404C08091AD
:101E400080008F7703C0809180008F7D8093800019
:101E500010C084B58F7702C084B58F7D84BD09C062
:101E60008091B0008F7703C08091B0008F7D809308
:101E7000B000E32FF0E0EE0FFF1FE25FFE4FA591F1
:101E8000B4912FB7F894662321F48C91909589230F
:101E900002C08C91892B8C932FBF089508951F92B7
:101EA0000F920FB60F9211242F933F934F938F935E
:101EB0009F93EF93FF938091C00082FD1DC04091DE
:101EC000C60020917203309173032F5F3F4F2F7331
:101ED000307080917403909175032817390771F061
:101EE000E0917203F0917303EE5CFC4F40833093FA
:101EF00073032093720302C08091C600FF91EF919B
:101F00009F918F914F913F912F910F900FBE0F9006
:101F10001F901895E091C603F091C703E05CFF4F56
:101F20008191919120813181821B930B8F739070ED
:101F3000892B11F00E944E0F08951F920F920FB639
:101F40000F9211242F933F938F939F93EF93FF93BF
:101F50002091B6033091B7038091B8039091B903F3
:101F60002817390731F48091C1008F7D8093C1001B
:101F700014C0E091B803F091B903EA58FC4F2081F6
:101F80008091B8039091B90301968F7390709093EC
:101F9000B9038093B8032093C600FF91EF919F91FE
:101FA0008F913F912F910F900FBE0F901F9018951A
:101FB000AF92BF92DF92EF92FF920F931F93CF9356
:101FC000DF93EC017A018B01DD24403081EE58076C
:101FD00080E0680780E0780711F0DD24D39491E079
:101FE000A92EB12CEC89FD89DD2069F0C50108A07E
:101FF00002C0880F991F0A94E2F7808360E079E0BD
:102000008DE390E005C0108260E874E88EE190E016
:10201000A80197010E94B01221503040404050402A
:10202000569547953795279580E12030380720F061
:10203000DD2011F0DD24D6CFE889F9893083EA89E3
:10204000FB89208319A2EE89FF89408121E030E0DD
:10205000C9010C8C02C0880F991F0A94E2F7482B23
:102060004083EE89FF894081C9010D8C02C0880F31
:10207000991F0A94E2F7482B4083EE89FF8940813B
:10208000C9010E8C02C0880F991F0A94E2F7482BF1
:102090004083EE89FF8980810F8C02C0220F331F9D
:1020A0000A94E2F7209528232083DF91CF911F9196
:1020B0000F91FF90EF90DF90BF90AF900895DC01FB
:1020C0001C96ED91FC911D97E05CFF4F21913191A1
:1020D00080819181281B390B2F733070C9010895BD
:1020E000DC011C96ED91FC911D97E05CFF4F208177
:1020F0003181E054F040DF01AE5BBF4F8D919C9188
:1021000011972817390719F42FEF3FEF07C08D916A
:102110009C91E80FF91F8081282F30E0C9010895B4
:10212000DC011C96ED91FC911D97E05CFF4F208136
:102130003181E054F040DF01AE5BBF4F8D919C9147
:1021400011972817390719F42FEF3FEF10C08D9121
:102150009C911197E80FF91F20818D919C91119707
:1021600001968F73907011969C938E9330E0C90105
:102170000895DC0191968C919197882339F05496BB
:10218000ED91FC915597808186FFF9CF91961C9235
:102190000895CF93DF93EC01EE85FF85E05CFF4F60
:1021A00020813181E054F0402F5F3F4F2F7330701A
:1021B000DF01AE5BBF4F8D919C91119728173907B6
:1021C000D1F3E05CFF4F80819181E054F040E80F53
:1021D000F91F6083EE85FF85E05CFF4F318320832C
:1021E000EE89FF89208181E090E00F8C02C0880F8A
:1021F000991F0A94E2F7282B208381E089A3EC89B8
:10220000FD8980818064808381E090E0DF91CF91BF
:1022100008951092BD031092BC0388EE93E0A0E0F5
:10222000B0E08093BE039093BF03A093C003B0932C
:10223000C10386E192E09093BB038093BA0382E3EB
:1022400093E09093C7038093C60386E793E090934F
:10225000C9038093C80385EC90E09093CB038093EF
:10226000CA0384EC90E09093CD038093CC0380EC80
:1022700090E09093CF038093CE0381EC90E0909315
:10228000D1038093D00382EC90E09093D3038093AA
:10229000D20386EC90E09093D5038093D40384E03E
:1022A0008093D60383E08093D70387E08093D8039D
:1022B00085E08093D90381E08093DA030895CF937A
:1022C000DF930E94200E0E94DD09CAE8DFE00E9431
:1022D000330D2097E1F30E948A0FF9CF0E94DD00B1
:1022E0000895CF92DF92EF92FF920F931F93CF93B7
:1022F000DF937C016B018A01C0E0D0E00FC0D60102
:102300006D916D01D701ED91FC910190F081E02D6F
:10231000C7010995C80FD91F0150104001151105BB
:1023200071F7CE01DF91CF911F910F91FF90EF9048
:10233000DF90CF900895EF92FF920F931F938C013F
:10234000DC01ED91FC910190F081E02D6DE00995AB
:102350007C01D801ED91FC910190F081E02DC80144
:102360006AE009959C012E0D3F1DC9011F910F9137
:10237000FF90EF900895CF93DF93EC016115710505
:1023800019F420E030E00FC0DB010D900020E9F7E8
:102390001197A61BB70BE881F9810280F381E02D2C
:1023A000AD0109959C01C901DF91CF9108954F922C
:1023B0005F927F928F929F92AF92BF92CF92DF9265
:1023C000EF92FF920F931F93DF93CF93CDB7DEB7BA
:1023D000A1970FB6F894DEBF0FBECDBF2C01742EAF
:1023E000CB01223008F42AE019A231E2C32ED12C0D
:1023F000CC0EDD1E822E9924AA24BB24672D752FB6
:10240000A50194010E94B01279018A01C801B701A7
:10241000A50194010E947E12472D461B0894C10815
:10242000D1084A3014F4405D01C0495CF601408394
:10243000E114F1040105110521F07E2C5F2DC80186
:10244000DDCFC201B6010E94BB11A1960FB6F89470
:10245000DEBF0FBECDBFCF91DF911F910F91FF90D7
:10246000EF90DF90CF90BF90AF909F908F907F9034
:102470005F904F900895DC012115310541F4ED91F5
:10248000FC910190F081E02D642F099508950E9440
:10249000D7110895CF92DF92EF92FF920F931F937F
:1024A0006C01E62E9A01FF2400E010E0B801A701BC
:1024B0000E943B128C01C6010E949B11080F191F3C
:1024C000C8011F910F91FF90EF90DF90CF9008957A
:1024D0000E94BB110895EF92FF920F931F937C010E
:1024E0000E94BB118C01C7010E949B11080F191F8C
:1024F000C8011F910F91FF90EF900895629FD00146
:10250000739FF001829FE00DF11D649FE00DF11DAE
:10251000929FF00D839FF00D749FF00D659FF00D5D
:102520009927729FB00DE11DF91F639FB00DE11D4A
:10253000F91FBD01CF011124089597FB092E07262D
:102540000AD077FD04D049D006D000201AF4709547
:1025500061957F4F0895F6F7909581959F4F089567
:10256000A1E21A2EAA1BBB1BFD010DC0AA1FBB1F97
:10257000EE1FFF1FA217B307E407F50720F0A21B09
:10258000B30BE40BF50B661F771F881F991F1A9476
:1025900069F760957095809590959B01AC01BD01A0
:1025A000CF01089597FB092E05260ED057FD04D0C4
:1025B000D7DF0AD0001C38F450954095309521950E
:1025C0003F4F4F4F5F4F0895F6F790958095709568
:1025D00061957F4F8F4F9F4F0895AA1BBB1B51E101
:1025E00007C0AA1FBB1FA617B70710F0A61BB70B83
:1025F000881F991F5A95A9F780959095BC01CD0128
:102600000895EE0FFF1F0590F491E02D099411E05D
:10261000C4E6D1E004C0FE010E9403132296C63630
:08262000D107C9F7F894FFCFC0
:102628005365742050574D206F666600537461726D
:1026380074696E6720536C6176652E2E2E00536583
:102648007420535049206F666600496E69742052A1
:1026580053343835005374617274206C6F6F702E68
:102668002E2E005265642075700052656420646FD8
:10267800776E00477265656E2075700047726565F4
:102688006E20646F776E00426C756520757000422D
:102698006C756520646F776E004368616E6E656C5B
:1026A8003A20002D2D2D005265642061646400528B
:1026B80065642073756200477265656E20616464A5
:1026C80000477265656E2073756200426C756520FF
:1026D80061646400426C75652073756200446174BE
:1026E800612072656365697665642E2E2E004E6FD3
:1026F80020666C69636B65722070726F6772616DBA
:102708006D6564002000E003000006000500220259
:1027180000000000BC047111A20481047F056E054D
:1027280000000000CB06C006D40691084607C8067C
:10273800CA0600000000C91071115F1090107010D7
:02274800B910C6
:00000001FF
