:100000000C94B3000C94DB000C94DB000C940803FC
:100010000C9432030C945C030C94DB000C94DB0016
:100020000C94DB000C94DB000C94DB000C94DB00E4
:100030000C94DB000C94DB000C94DB000C94DB00D4
:100040000C94330D0C94DB000C94410F0C948F0F27
:100050000C94DB000C94DB000C94DB000C94DB00B4
:100060000C94DB000C94DB0000C2010001001100C5
:1000700011000C0000E100000A002500250021000D
:10008000009600001900390039003600127A00008D
:100090001F004600460044008070000022004D0012
:1000A0004D004A00004B00003600750075007200DC
:1000B000403800004A009C009C0099008025000008
:1000C0007200EC00EC00E900C0120000E900DA0167
:1000D000DA01D70160090000D701B603B603B30304
:1000E000B0040000B3036E076E076B0758020000F0
:1000F0006E07DC0EDC0ED80E2C010000DC0EC11DDC
:10010000C11DBE1D00000000240027002A000000C1
:100110000000250028002B0000000000230026001E
:10012000290004040404040404040202020202027A
:1001300003030303030301020408102040800102AB
:10014000040810200102040810200000000700022B
:10015000010000030406000000000000000082020D
:100160000E07FB10070711241FBECFEFD8E0DEBF3C
:10017000CDBF12E0A0E0B1E0ECE0F6E202C00590F5
:100180000D92A632B107D9F713E0A6E2B2E001C0A2
:100190001D92A53DB107E1F711E0C4E6D1E004C02E
:1001A0002297FE010E94F512CE35D107C9F70E94B1
:1001B00051110C94F9120C940000CF93DF93BC0101
:1001C0008230910510F462E070E0A091D303B09109
:1001D000D403ED01E0E0F0E040E050E021C0888190
:1001E00099818617970769F48A819B81309719F066
:1001F0009383828304C09093D4038093D303FE013E
:1002000034C06817790738F44115510519F084177F
:10021000950708F4AC01FE018A819B819C01E901EC
:100220002097E9F641155105A9F1CA01861B970BE4
:10023000049708F4BA01E0E0F0E02AC08D919C91A7
:10024000119784179507F9F46417750781F41296CE
:100250008D919C911397309719F09383828304C0FA
:100260009093D4038093D303FD0132964CC0CA010E
:10027000861B970BFD01E80FF91F6193719302979D
:100280008D939C9340C0FD01828193819C01D90193
:100290001097A1F68091D1039091D203892B41F45C
:1002A0008091E6019091E7019093D2038093D1036E
:1002B0004091E8015091E9014115510541F44DB7D4
:1002C0005EB78091E4019091E501481B590B2091A4
:1002D000D1033091D203CA01821B930B8617970773
:1002E00080F0AB014E5F5F4F8417950750F0420FCF
:1002F000531F5093D2034093D103F901619371933B
:1003000002C0E0E0F0E0CF01DF91CF910895CF93FC
:10031000DF93009709F450C0EC0122971B821A82E8
:10032000A091D303B091D403109709F140E050E0BD
:10033000AC17BD0708F1BB83AA83FE01219131915F
:10034000E20FF31FAE17BF0779F48D919C911197BF
:10035000280F391F2E5F3F4F3983288312968D91C6
:100360009C9113979B838A834115510571F4D09317
:10037000D403C093D30320C012968D919C91139700
:10038000AD01009711F0DC01D3CFFA01D383C28312
:1003900021913191E20FF31FCE17DF0769F48881B5
:1003A0009981280F391F2E5F3F4FFA013183208337
:1003B0008A819B8193838283DF91CF910895DF921D
:1003C000EF92FF920F931F93CF93DF93EC017B018A
:1003D000101611062CF0D22E032F20E030E002C0C0
:1003E000D02E012FC05CDF4FA881B981C054D0400E
:1003F000FE0160E070E007C0808191813896892B12
:1004000041F06F5F7F4F6A177B07B4F3EE24FF2440
:1004100022C0E3E0660F771FEA95E1F7DE01A60F41
:10042000B71F1196FC92EE92FE01E60FF71F538361
:10043000428317963C932E931697FB013496EC0F4C
:10044000FD1FD0820183D701ED91FC910190F081D5
:10045000E02DC7010995C701DF91CF911F910F9141
:10046000FF90EF90DF900895DF92EF92FF920F934D
:100470001F93CF93DF93D62EEC0100E010E050E401
:10048000E52EF12CE80EF91E1DC0A881B981109748
:10049000F9F0ED91FC9111972E813F81C901880FF0
:1004A000991F820F931F6A817B81680F791F4C818E
:1004B0005D810084F185E02DCD012D2D09950F5F23
:1004C0001F4F2896F7018081918108171907ECF2D8
:1004D000DF91CF911F910F91FF90EF90DF900895E2
:1004E000FC01E05CFF4F88E090E0819391938FEFF7
:1004F0008083E254F040CF0160E040E450E00E948D
:100500009302089586E292E00E9470028CE894E6DD
:10051000A4ECB0E08093690290936A02A0936B020E
:10052000B0936C020895DC0140FF03C001C06D93DD
:100530006D934250E0F75040D0F708950F931F930A
:10054000CF93DF93FC01738D76957170A685B78587
:100550009585772329F08C91892309F454C004C030
:100560008C91892309F04FC08389948920E00197F9
:100570002FEF8F3F9207D9F7C589D689A685B78512
:10058000158560E031E040E050E000E0CE01202F32
:1005900001972FEF8F3F9207D9F78C91812311F0AC
:1005A000632B03C0832F80956823330F4F5F5F4F0A
:1005B0004830510559F78789908D20E001972FEF3A
:1005C0008F3F9207D9F7711160958091AF0220910A
:1005D000B00290E001968F73907030E0821793071D
:1005E00079F0E091AF02F0E0E159FD4F6083809136
:1005F000AF0290E001968F7390708093AF0203C0BA
:10060000838D8160838FDF91CF911F910F9108952A
:100610001F920F920FB60F9211242F933F934F9377
:100620005F936F937F938F939F93AF93BF93EF935A
:10063000FF9380916D0290916E02009711F00E94DD
:100640009E02FF91EF91BF91AF919F918F917F910A
:100650006F915F914F913F912F910F900FBE0F902F
:100660001F9018951F920F920FB60F9211242F937F
:100670003F934F935F936F937F938F939F93AF932A
:10068000BF93EF93FF9380916D0290916E0200975C
:1006900011F00E949E02FF91EF91BF91AF919F9147
:1006A0008F917F916F915F914F913F912F910F901B
:1006B0000FBE0F901F9018951F920F920FB60F92BA
:1006C00011242F933F934F935F936F937F938F9357
:1006D0009F93AF93BF93EF93FF9380916D0290919F
:1006E0006E02009711F00E949E02FF91EF91BF9160
:1006F000AF919F918F917F916F915F914F913F91BA
:100700002F910F900FBE0F901F901895CF92DF92F0
:10071000EF92FF920F931F93CF93DF93EC017A0137
:100720008B011A8E198E188E1F8A1E8A1D8A1C8AAA
:100730001B8A20E030E06901CC0CDD1CC20ED31E08
:10074000B601660F771F660F771FAB0148595F4FE1
:10075000FA0185919591A591B4918E159F05A007F9
:10076000B107E9F4FB01E459FF4F859194919C8B0B
:100770008B8BFB01E259FF4F859194919E8B8D8B62
:10078000FB01E059FF4F85919491988F8F8BFB016E
:10079000EE58FF4F859194919A8F898F06C02F5FF5
:1007A0003F4F2D30310509F0C6CF8F89988D892BA9
:1007B00009F449C04C85463108F03DC0909168006D
:1007C000483010F484E005C04E3010F082E001C0E3
:1007D00081E0892B80936800483028F4EDE6F0E052
:1007E000ADE6B0E00BC04E3028F0ECE6F0E0ACE651
:1007F000B0E004C0EBE6F0E0ABE6B0E0508148309A
:1008000040F481E090E002C0880F991F4A95E2F71A
:1008100010C0242F30E04E3018F42850304002C071
:100820002E50304081E090E002C0880F991F2A9539
:10083000E2F7852B8C93898D9A8D20E001972FEF1D
:100840008F3F9207D9F780916D0290916E028C17BD
:100850009D0781F08B8D8E7F8B8F9FB7F8941092C0
:10086000AF028091AF028093B002D0936E02C0932A
:100870006D029FBFDF91CF911F910F91FF90EF907D
:10088000DF90CF900895FC014485463180F54830D3
:1008900028F4EDE6F0E0ADE6B0E00BC04E3028F411
:1008A000EBE6F0E0ABE6B0E004C0ECE6F0E0ACE68E
:1008B000B0E05081483040F481E090E002C0880F01
:1008C000991F4A95E2F710C0242F30E04E3018F4FB
:1008D0002850304002C02E50304081E090E002C0ED
:1008E000880F991F2A95E2F7809585238C930895A8
:1008F000FC0188EF91E091838083CF010E94430443
:10090000089520916D0230916E022817390731F455
:100910009091B0028091AF02981719F42FEF3FEF3A
:100920000FC0E091B002F0E0E159FD4F20818091CD
:10093000B00290E001968F7390708093B00230E027
:10094000C901089520916D0230916E022817390770
:1009500019F020E030E00EC08091AF022091B0028B
:1009600090E0805C9F4F821B910960E470E00E94E0
:100970008F129C01C90108950F931F93DC015996B2
:100980008D919C915A97892B49F481E090E01396C0
:100990009C938E93129720E030E097C00FB7F894A5
:1009A0005B968C915B975196ED91FC915297509686
:1009B0002C91509781FF8DC08081822B8083599626
:1009C0008D919C915A97059620E001972FEF8F3FCC
:1009D0009207D9F75B968C915B9781FF35C031E028
:1009E00040E050E070E010E0832F90E086239723F2
:1009F0005196ED91FC91529750962C915097892BDE
:100A000029F0808120952823208303C08081822BB8
:100A1000808359968D919C915A97212F01972FEFA2
:100A20008F3F9207D9F7330F4F5F5F4F4830510523
:100A3000D9F65196ED91FC915297908150968C91F8
:100A400050978095892333C031E040E050E070E05A
:100A500010E0832F90E0862397235196ED91FC912F
:100A6000529750962C915097892B21F08081822BA0
:100A7000808304C0808120952823208359968D91FE
:100A80009C915A97212F01972FEF8F3F9207D9F70B
:100A9000330F4F5F5F4F48305105D9F65196ED91B6
:100AA000FC915297808150969C915097892B80831E
:100AB0000FBF59968D919C915A9720E001972FEF87
:100AC0008F3F9207D9F721E030E0C9011F910F91C4
:100AD0000895808120952823208371CF20916D0275
:100AE00030916E022817390749F49FB7F894109295
:100AF000AF028091AF028093B0029FBF0895209112
:100B00006D0230916E022817390731F49091B002CE
:100B10008091AF02981719F42FEF3FEF0AC0E091D0
:100B2000B002F0E0E159FD4F8081282F332727FDE7
:100B30003095C90108951F93CF93DF93EC01162FD1
:100B4000862F60E00E94AD0E8B8D81FD04C0812F49
:100B500061E00E94EC0E1C87212F30E0C9018A5C05
:100B60009E4FFC0184918D872E5D3E4FF90164916B
:100B7000E62FF0E0EE0FFF1FE85EFE4F85919491A7
:100B80009F878E87DF91CF911F910895FF920F93DA
:100B90001F938C01F62E862F61E00E94AD0E8F2DE3
:100BA00061E00E94EC0E8F2D90E0FC01EA5CFE4FAC
:100BB000E491D8015096EC9350978E5D9E4FFC01C6
:100BC0006491E62FF0E0EE0FFF1FE25FFE4F85918C
:100BD000949152969C938E9351971F910F91FF90F1
:100BE0000895FF920F931F938C01F62EFC01138240
:100BF000128288EE93E0A0E0B0E084839583A68320
:100C0000B78388EF91E091838083148A138A168AD0
:100C1000158A108E178A128E118E838D2170220FE5
:100C20008C7F822B838FC801642F0E94C605C80168
:100C30006F2D0E949B051F910F91FF9008952F9299
:100C40003F924F925F926F927F928F929F92AF925C
:100C5000BF92CF92DF92EF92FF920F931F93DF9399
:100C6000CF9300D000D0CDB7DEB71C012B015C8341
:100C70004B832A83370148010E947B0D6B017C0165
:100C8000198259C0F1010995181619060CF053C0C4
:100C9000F2010995823029F0833061F4AA24A394EB
:100CA0004AC00E947B0D6B017C0181E08983AA24EC
:100CB00000E040C09981992309F43DC090E09C0177
:100CC00044E0359527954A95E1F7809590958F708A
:100CD000907028173907D9F5112319F0B22E10E0BA
:100CE0002AC0B29490EFB922B22AAA20D1F00EC045
:100CF000308198E0832F8227269580FD252791500B
:100D000019F43196415007C03695F4CFEB81FC8140
:100D1000402F20E05CE8442359F72B15C9F4402FFD
:100D200017C0EA810E1798F4EB81FC81E00FF11DEA
:100D3000B0820F5F11E00E947B0D6C197D098E0956
:100D40009F09661577058805990508F49BCF40E053
:100D5000842F0F900F900F900F90CF91DF911F91E4
:100D60000F91FF90EF90DF90CF90BF90AF909F904A
:100D70008F907F906F905F904F903F902F9008954D
:100D8000FC01A081B1812D913C91F9010995089553
:100D900081E008950895FC01249A80E1828385E230
:100DA00090E0948383830895DF93CF9300D00F92D4
:100DB000CDB7DEB7DC01AB01ED91FC910680F78188
:100DC000E02D19821A821B82BE016F5F7F4F20E0E7
:100DD00009950F900F900F90CF91DF91089581307A
:100DE000910559F46F5F7F4F89F482E093E06AE0E8
:100DF00049E020E00E94F1050895892B39F46F5FE6
:100E00007F4F21F482E093E00E947804089580E00F
:100E100090E06FEF7FEF0E94EF06089581E090E091
:100E20006FEF7FEF0E94EF0608950F931F938C01E1
:100E30000E94890D9B01AC01F80180819181A28102
:100E4000B381281B390B4A0B5B0B2233310541055B
:100E5000510534F482E390E0821B930B0E94080E4C
:100E60001F910F910895CF92DF92EF92FF920F930F
:100E70001F93CF93DF936C01162F072FEA01E22E09
:100E800005960E941507F894812F902FFC01BE0152
:100E9000660F771F6C0F7D1F6E0F7F1F55B150615E
:100EA00085B18F7E85B920813E2D239F212DE4C001
:100EB00095E055B90014001400140014001427FF25
:100EC00085B90014001400140014001485B900142E
:100ED0000014220F915069F7001455B90014001442
:100EE00000140014001427FF85B900140014001426
:100EF0000014001485B90014001400140014001428
:100F0000001455B90014001400140014001426FF36
:100F100085B90014001400140014001485B941812F
:100F20003E2D439F412D55B90014001400140014A8
:100F3000001425FF85B900140014001400140014D7
:100F400085B90014001400140014001495E055B97C
:100F50000014001400140014001447FF85B9001495
:100F6000001400140014001485B900140014440F78
:100F7000915069F7001455B90014001400140014BE
:100F8000001447FF85B90014001400140014001465
:100F900085B900140014001400140014001455B98D
:100FA0000014001400140014001446FF85B9001446
:100FB000001400140014001485B932812E2D329FC4
:100FC000312D55B90014001400140014001445FF0D
:100FD00085B90014001400140014001485B900141D
:100FE000001400140014001495E055B90014001406
:100FF00000140014001437FF85B900140014001405
:101000000014001485B900140014330F915069F7CF
:10101000001455B90014001400140014001437FF14
:1010200085B90014001400140014001485B90014CC
:10103000001400140014339655B900140014001461
:101040000014001436FF85B90014001400140014B5
:10105000001485B920814E2D249F212D55B90014EF
:10106000001400140014001435FF85B90014001496
:1010700000140014001485B9E617F70708F418CF18
:101080001124E0902203F090230300912403109197
:10109000250388EC91E0FC01CE9FC001CF9F900D0D
:1010A000DE9F900D112460E170E00E948F1288276E
:1010B00077FD8095982F28EE33E040E050E00E94C5
:1010C000C412E20EF31E041F151FE0922203F092D9
:1010D0002303009324031093250378940E94890D21
:1010E000F6016583768387839087DF91CF911F9187
:1010F0000F91FF90EF90DF90CF900895AF92BF9245
:10110000CF92DF92EF92FF920F931F93CF93DF93D3
:101110005C01EB016A01122F05960E941507F894F5
:10112000B601660F771F6C0D7D1D6C0F7D1F55B1CD
:10113000506185B18F7E85B9A8812A2F219F212DED
:10114000FE01E4C095E055B9001400140014001429
:10115000001427FF85B900140014001400140014B3
:1011600085B900140014220F915069F7001455B985
:101170000014001400140014001427FF85B9001493
:10118000001400140014001485B900140014001495
:1011900000140014001455B90014001400140014B5
:1011A000001426FF85B90014001400140014001464
:1011B00085B949810014419F412D55B9001400148F
:1011C00000140014001425FF85B900140014001445
:1011D0000014001485B90014001400140014001445
:1011E00095E055B90014001400140014001447FFD2
:1011F00085B90014001400140014001485B90014FB
:101200000014440F915069F7001455B900140014EC
:1012100000140014001447FF85B9001400140014D2
:101220000014001485B900140014001400140014F4
:10123000001455B90014001400140014001446FFE3
:1012400085B90014001400140014001485B93A8103
:101250000014319F312D55B90014001400140014EE
:10126000001445FF85B90014001400140014001484
:1012700085B90014001400140014001495E055B949
:101280000014001400140014001437FF85B9001472
:10129000001400140014001485B900140014330F56
:1012A000915069F7001455B900140014001400148B
:1012B000001437FF85B90014001400140014001442
:1012C00085B90014001400140014339655B90014A5
:1012D000001400140014001436FF85B90014001423
:1012E00000140014001485B900142A2F219F212D09
:1012F00055B90014001400140014001435FF85B90A
:101300000014001400140014001485B9E617F70740
:1013100008F418CF1124E0902203F09023030091E9
:1013200024031091250388EC91E09C01C29EC0012A
:10133000C39E900DD29E900D112460E170E00E943A
:101340008F12882777FD8095982F28EE33E040E0B4
:1013500050E00E94C412E20EF31E041F151FE0921B
:101360002203F0922303009324031093250378941F
:101370000E94890DF5016583768387839087DF91CD
:10138000CF911F910F91FF90EF90DF90CF90BF9082
:10139000AF90089582E093E00E948104089582E076
:1013A00093E00E94A2040895EF92FF920F931F937F
:1013B000DF93CF93CDB7DEB764970FB6F894DEBF57
:1013C0000FBECDBF8FEC99E06AEC79E0AE014F5FC4
:1013D0005F4F23E1E4EFEE2EE1E0FE2E012D112D13
:1013E0000E941F06882309F49BC065E070E080E03E
:1013F00090E00E94AF0D8FEA93E060E071E00E9400
:101400005D128981813009F08BC08A81823009F4B4
:1014100066C0833009F47EC0813009F081C08B81C1
:10142000882351F0AEEDB2E0EFECF2E083E0019002
:101430000D928150E1F706C01092DE021092DF0299
:101440001092E0028C81882351F0A1EEB2E0E2ED2F
:10145000F2E083E001900D928150E1F706C0109216
:10146000E1021092E2021092E3028D81882351F092
:10147000A4EEB2E0E5EDF2E083E001900D92815040
:10148000E1F706C01092E4021092E5021092E60223
:101490008E81882351F0A7EEB2E0E8EDF2E083E020
:1014A00001900D928150E1F706C01092E702109270
:1014B000E8021092E9028F81882351F0AAEEB2E08F
:1014C000EBEDF2E083E001900D928150E1F728C04E
:1014D0001092EA021092EB021092EC0221C08E816F
:1014E0008630F0F490E09C01220F331F280F391F43
:1014F000F901E153FD4F8B8180838C8181838D8144
:101500008283D901A252BD4F83E001900D92815098
:10151000E1F706C08FEA93E061E171E00E945D129D
:1015200064960FB6F894DEBF0FBECDBFCF91DF91AA
:101530001F910F91FF90EF900895CF92DF92EF925D
:10154000FF920F931F937B016A010FEF10E0B80128
:10155000681B790B8091EA010E944D0EB8016E194B
:101560007F098091EE010E944D0E0C191D0980919A
:10157000EC01B8010E944D0E8091F00161E00E94E3
:10158000EC0E1F910F91FF90EF90DF90CF90089598
:101590000F931F938FEA93E040E855E260E070E01C
:1015A0000E94CA0F8FEA93E067E271E00E945D1229
:1015B00060ED77E080E090E00E94AF0D0091F201D5
:1015C0001091F30189E090E00E946011FC01158206
:1015D00016821782108688E092E091838083C8018A
:1015E000BF0141EB52E02AE030E000E010E00E9451
:1015F000DF018FEA93E069E371E00E945D12809160
:10160000F00161E00E94AD0E8091F00160E00E9467
:10161000EC0E80E090E060E070E040E050E00E947E
:101620009D0A68EE73E080E090E00E94AF0D8FEAC3
:1016300093E065E471E00E945D12E1EBF2E010825C
:1016400011821282339682E0EF3CF807C1F78FEAED
:1016500093E061E571E00E945D1282E093E040E872
:1016600055E260E070E00E94860388E061E00E943D
:10167000AD0E8FEA93E06CE571E00E945D121F9160
:101680000F910895CF92DF92EF92FF920F931F93E5
:10169000CF93DF938091010390E0FC01EE0FFF1FD9
:1016A000E80FF91FDF01A252BD4FE351FD4F9081BA
:1016B0008C91981710F0CC2408C08FEA93E06AE66A
:1016C00071E00E945D12CC24C3948091010390E0EC
:1016D000FC01EE0FFF1FE80FF91FDF01A252BD4F03
:1016E000E351FD4F90818C91891710F0DD2408C0E3
:1016F0008FEA93E061E771E00E945D12DD24D394EC
:101700008091010390E0FC01EE0FFF1FE80FF91F2D
:10171000DF01A252BD4FE351FD4F918111968C9193
:10172000981710F0EE2408C08FEA93E06AE771E0A2
:101730000E945D12EE24E3948091010390E0FC018D
:10174000EE0FFF1FE80FF91FDF01A252BD4FE3515B
:10175000FD4F918111968C91891710F0FF2408C0DC
:101760008FEA93E063E871E00E945D12FF24F39436
:101770008091010390E0FC01EE0FFF1FE80FF91FBD
:10178000DF01A252BD4FE351FD4F928112968C9121
:10179000981710F000E007C08FEA93E06EE871E060
:1017A0000E945D1201E08091010390E0FC01EE0FC8
:1017B000FF1FE80FF91FDF01A252BD4FE351FD4F9C
:1017C000928112968C91891710F010E007C08FEA71
:1017D00093E066E971E00E945D1211E08FEA93E008
:1017E00060EA71E00E945A128FEA93E0609101036F
:1017F0004AE050E00E943C128091010390E0FC011D
:10180000EE0FFF1FE80FF91FE351FD4F8FEA93E042
:1018100060814AE050E00E943C128091010390E018
:10182000FC01EE0FFF1FE80FF91FE252FD4F8FEA98
:1018300093E060814AE050E00E943C128FEA93E01E
:101840006AEA71E00E945D12CC2099F08091010358
:1018500090E0FC01EE0FFF1FE80FF91FE351FD4F71
:1018600080818F5F80838FEA93E06EEA71E00E944F
:101870005D12DD2099F08091010390E0FC01EE0FF4
:10188000FF1FE80FF91FE351FD4F808181508083D6
:101890008FEA93E066EB71E00E945D12EE2099F012
:1018A0008091010390E0FC01EE0FFF1FE80FF91F8C
:1018B000E351FD4F81818F5F81838FEA93E06EEB6F
:1018C00071E00E945D12FF2099F08091010390E089
:1018D000FC01EE0FFF1FE80FF91FE351FD4F81815F
:1018E000815081838FEA93E068EC71E00E945D1281
:1018F000002399F08091010390E0FC01EE0FFF1F9F
:10190000E80FF91FE351FD4F82818F5F82838FEAD9
:1019100093E062ED71E00E945D12112399F08091D5
:10192000010390E0FC01EE0FFF1FE80FF91FE351E8
:10193000FD4F8281815082838FEA93E06BED71E0ED
:101940000E945D1280910103882359F46091EE0298
:101950004091EF028091ED0290E070E050E00E9433
:101960009D0A80910103813029F50091F2011091C7
:10197000F301C1EBD2E032E4E32EF12CE00EF11ED4
:101980008091010390E0FC01EE0FFF1FE80FF91FAB
:10199000E351FD4F808188838181898382818A839D
:1019A000C801F70160810E9434022396F2E0CF3C27
:1019B000DF0731F780910103C82FD0E020E0FE015E
:1019C000EE0FFF1FEC0FFD1FDF01A252BD4FE351D1
:1019D000FD4F90818C91981709F421E030E0FE01D1
:1019E000EE0FFF1FEC0FFD1FDF01A252BD4FE351B1
:1019F000FD4F918111968C91981709F431E02323C2
:101A000030E040E050E0FE01EE0FFF1FEC0FFD1F45
:101A1000DF01A252BD4FE351FD4F928112968C918E
:101A2000981711F441E050E024233523232B21F0B3
:101A3000C450DD4F81E08883DF91CF911F910F91DA
:101A4000FF90EF90DF90CF9008950E94D4090E94FC
:101A5000420B809101038F5F80930103853010F06A
:101A60001092010308951F920F920FB60F92112446
:101A70002F933F938F939F93AF93BF9380912203B4
:101A800090912303A0912403B09125033091260364
:101A90000196A11DB11D232F2D5F2D3720F02D574D
:101AA0000196A11DB11D20932603809322039093DC
:101AB0002303A0932403B093250380911E039091E8
:101AC0001F03A0912003B09121030196A11DB11D18
:101AD00080931E0390931F03A0932003B0932103D0
:101AE000BF91AF919F918F913F912F910F900FBE1A
:101AF0000F901F9018958FB7F89420912203309182
:101B0000230340912403509125038FBFB901CA01DB
:101B100008959FB7F89420911E0330911F034091C0
:101B200020035091210386B5A89B06C08F3F21F06A
:101B30002F5F3F4F4F4F5F4F9FBF542F432F322F89
:101B40002227280F311D411D511D82E0220F331F16
:101B5000441F551F8A95D1F7B901CA0108959B0109
:101B6000AC017FB7F89480911E0390911F03A09160
:101B70002003B091210366B5A89B05C06F3F19F003
:101B80000196A11DB11D7FBFBA2FA92F982F8827BD
:101B9000860F911DA11DB11D62E0880F991FAA1F1C
:101BA000BB1F6A95D1F7BC012DC0FFB7F894809197
:101BB0001E0390911F03A0912003B0912103E6B56D
:101BC000A89B05C0EF3F19F00196A11DB11DFFBFF5
:101BD000BA2FA92F982F88278E0F911DA11DB11DF7
:101BE000E2E0880F991FAA1FBB1FEA95D1F7861B59
:101BF000970B885E9340C8F22150304040405040DF
:101C000068517C4F211531054105510571F6089544
:101C1000019739F0880F991F880F991F0297019734
:101C2000F1F70895789484B5826084BD84B58160AD
:101C300084BD85B5826085BD85B5816085BDEEE6D4
:101C4000F0E0808181608083E1E8F0E010828081B3
:101C500082608083808181608083E0E8F0E0808121
:101C600081608083E1EBF0E0808184608083E0EB41
:101C7000F0E0808181608083EAE7F0E08081846029
:101C80008083808182608083808181608083808185
:101C9000806880831092C10008951F93CF93DF93D3
:101CA000182FEB0161E00E94AD0E209709F44AC0A5
:101CB000CF3FD10509F449C0E12FF0E0E65BFE4FCC
:101CC00084918330C1F0843028F4813051F0823027
:101CD000B1F50CC0863019F1873049F1843079F5BF
:101CE00014C084B5806884BDC7BD33C084B580622C
:101CF00084BDC8BD2EC08091800080688093800024
:101D0000D0938900C093880024C0809180008062B5
:101D100080938000D0938B00C0938A001AC080917A
:101D2000B00080688093B000C093B30012C080916F
:101D3000B00080628093B000C093B4000AC0C03885
:101D4000D1051CF4812F60E002C0812F61E00E9468
:101D5000EC0EDF91CF911F910895CF93DF93482F21
:101D600050E0CA018A5C9E4FFC0134914E5D5E4F8B
:101D7000FA018491882369F190E0880F991FFC0192
:101D8000EC5FFE4FA591B491FC01E25FFE4FC5915F
:101D9000D491662351F42FB7F8948C91932F90959A
:101DA00089238C93888189230BC0623061F42FB71B
:101DB000F8948C91932F909589238C938881832B11
:101DC00088832FBF06C09FB7F8948C91832B8C9388
:101DD0009FBFDF91CF910895482F50E0CA01865BE5
:101DE0009E4FFC012491CA018A5C9E4FFC01949194
:101DF0004E5D5E4FFA013491332309F440C0222333
:101E000051F1233071F0243028F42130A1F0223038
:101E100011F514C02630B1F02730C1F02430D9F4C8
:101E200004C0809180008F7703C0809180008F7DF7
:101E30008093800010C084B58F7702C084B58F7DF9
:101E400084BD09C08091B0008F7703C08091B0003D
:101E50008F7D8093B000E32FF0E0EE0FFF1FE25F75
:101E6000FE4FA591B4912FB7F894662321F48C917D
:101E70009095892302C08C91892B8C932FBF089554
:101E800008951F920F920FB60F9211242F933F9334
:101E90004F938F939F93EF93FF938091C00082FDA8
:101EA0001DC04091C60020916703309168032F5FE9
:101EB0003F4F2F7330708091690390916A03281708
:101EC000390771F0E0916703F0916803E95DFC4F19
:101ED0004083309368032093670302C08091C6005B
:101EE000FF91EF919F918F914F913F912F910F9083
:101EF0000FBE0F901F901895E091BB03F091BC03AB
:101F0000E05CFF4F8191919120813181821B930B85
:101F10008F739070892B11F00E94400F08951F92CB
:101F20000F920FB60F9211242F933F938F939F938D
:101F3000EF93FF932091AB033091AC038091AD03FD
:101F40009091AE032817390731F48091C1008F7D3D
:101F50008093C10014C0E091AD03F091AE03E55948
:101F6000FC4F20818091AD039091AE0301968F7359
:101F700090709093AE038093AD032093C600FF91C1
:101F8000EF919F918F913F912F910F900FBE0F90E6
:101F90001F901895AF92BF92DF92EF92FF920F932E
:101FA0001F93CF93DF93EC017A018B01DD24403046
:101FB00081EE580780E0680780E0780711F0DD24A3
:101FC000D39491E0A92EB12CEC89FD89DD2069F034
:101FD000C50108A002C0880F991F0A94E2F7808308
:101FE00060E079E08DE390E005C0108260E874E87D
:101FF0008EE190E0A80197010E94A212215030408A
:1020000040405040569547953795279580E12030C0
:10201000380720F0DD2011F0DD24D6CFE889F989DA
:102020003083EA89FB89208319A2EE89FF894081E8
:1020300021E030E0C9010C8C02C0880F991F0A947E
:10204000E2F7482B4083EE89FF894081C9010D8C5E
:1020500002C0880F991F0A94E2F7482B4083EE894B
:10206000FF894081C9010E8C02C0880F991F0A9414
:10207000E2F7482B4083EE89FF8980810F8C02C0F4
:10208000220F331F0A94E2F7209528232083DF9143
:10209000CF911F910F91FF90EF90DF90BF90AF9085
:1020A0000895DC011C96ED91FC911D97E05CFF4FBB
:1020B0002191319180819181281B390B2F733070D0
:1020C000C9010895DC011C96ED91FC911D97E05C1F
:1020D000FF4F20813181E054F040DF01AE5BBF4F04
:1020E0008D919C9111972817390719F42FEF3FEF25
:1020F00007C08D919C91E80FF91F8081282F30E057
:10210000C9010895DC011C96ED91FC911D97E05CDE
:10211000FF4F20813181E054F040DF01AE5BBF4FC3
:102120008D919C9111972817390719F42FEF3FEFE4
:1021300010C08D919C911197E80FF91F20818D910E
:102140009C91119701968F73907011969C938E932A
:1021500030E0C9010895DC0191968C919197882314
:1021600039F05496ED91FC915597808186FFF9CF17
:1021700091961C920895CF93DF93EC01EE85FF8535
:10218000E05CFF4F20813181E054F0402F5F3F4FF2
:102190002F733070DF01AE5BBF4F8D919C91119713
:1021A00028173907D1F3E05CFF4F80819181E0541B
:1021B000F040E80FF91F6083EE85FF85E05CFF4F7C
:1021C00031832083EE89FF89208181E090E00F8CAC
:1021D00002C0880F991F0A94E2F7282B208381E020
:1021E00089A3EC89FD8980818064808381E090E00F
:1021F000DF91CF9108951092B2031092B10388EE4F
:1022000093E0A0E0B0E08093B3039093B403A09375
:10221000B503B093B6038AE192E09093B003809344
:10222000AF0387E293E09093BC038093BB038BE6FC
:1022300093E09093BE038093BD0385EC90E0909370
:10224000C0038093BF0384EC90E09093C20380931B
:10225000C10380EC90E09093C4038093C30381ECAE
:1022600090E09093C6038093C50382EC90E0909336
:10227000C8038093C70386EC90E09093CA038093D1
:10228000C90384E08093CB0383E08093CC0387E091
:102290008093CD0385E08093CE0381E08093CF03CC
:1022A0000895CF93DF930E94120E0E94C80ACCE7D4
:1022B000DFE00E94250D2097E1F30E947C0FF9CF0B
:1022C0000E94DD000895CF92DF92EF92FF920F936C
:1022D0001F93CF93DF937C016B018A01C0E0D0E0B4
:1022E0000FC0D6016D916D01D701ED91FC91019068
:1022F000F081E02DC7010995C80FD91F015010408A
:102300000115110571F7CE01DF91CF911F910F914A
:10231000FF90EF90DF90CF900895EF92FF920F9390
:102320001F938C01DC01ED91FC910190F081E02D77
:102330006DE009957C01D801ED91FC910190F0814F
:10234000E02DC8016AE009959C012E0D3F1DC901D1
:102350001F910F91FF90EF900895CF93DF93EC01C1
:102360006115710519F420E030E00FC0DB010D901C
:102370000020E9F71197A61BB70BE881F9810280CD
:10238000F381E02DAD0109959C01C901DF91CF9149
:1023900008954F925F927F928F929F92AF92BF92D9
:1023A000CF92DF92EF92FF920F931F93DF93CF9321
:1023B000CDB7DEB7A1970FB6F894DEBF0FBECDBF85
:1023C0002C01742ECB01223008F42AE019A231E24C
:1023D000C32ED12CCC0EDD1E822E9924AA24BB2420
:1023E000672D752FA50194010E94A21279018A011F
:1023F000C801B701A50194010E947012472D461B28
:102400000894C108D1084A3014F4405D01C0495C09
:10241000F6014083E114F1040105110521F07E2C41
:102420005F2DC801DDCFC201B6010E94AD11A1969A
:102430000FB6F894DEBF0FBECDBFCF91DF911F91D5
:102440000F91FF90EF90DF90CF90BF90AF909F9053
:102450008F907F905F904F900895DC01211531059A
:1024600041F4ED91FC910190F081E02D642F0995EC
:1024700008950E94C9110895CF92DF92EF92FF92C2
:102480000F931F936C01E62E9A01FF2400E010E0E9
:10249000B801A7010E942D128C01C6010E948D1166
:1024A000080F191FC8011F910F91FF90EF90DF9047
:1024B000CF9008950E94AD110895EF92FF920F936F
:1024C0001F937C010E94AD118C01C7010E948D11E8
:1024D000080F191FC8011F910F91FF90EF900895E9
:1024E000629FD001739FF001829FE00DF11D649FF8
:1024F000E00DF11D929FF00D839FF00D749FF00D84
:10250000659FF00D9927729FB00DE11DF91F639F24
:10251000B00DE11DF91FBD01CF011124089597FBF6
:10252000092E07260AD077FD04D049D006D0002016
:102530001AF4709561957F4F0895F6F790958195FF
:102540009F4F0895A1E21A2EAA1BBB1BFD010DC0CF
:10255000AA1FBB1FEE1FFF1FA217B307E407F50753
:1025600020F0A21BB30BE40BF50B661F771F881F2F
:10257000991F1A9469F760957095809590959B01C5
:10258000AC01BD01CF01089597FB092E05260ED0A1
:1025900057FD04D0D7DF0AD0001C38F45095409581
:1025A000309521953F4F4F4F5F4F0895F6F7909527
:1025B0008095709561957F4F8F4F9F4F0895AA1B0F
:1025C000BB1B51E107C0AA1FBB1FA617B70710F01E
:1025D000A61BB70B881F991F5A95A9F78095909550
:1025E000BC01CD010895EE0FFF1F0590F491E02D81
:1025F000099411E0C4E6D1E004C0FE010E94F51286
:0C2600002296C636D107C9F7F894FFCF28
:10260C00446174612072656365697665642E2E2E53
:10261C00004E6F20666C69636B65722070726F6719
:10262C0072616D6D6564005374617274696E6720BC
:10263C00536C6176652E2E2E005365742050574DC9
:10264C00206F66660053657420535049206F666690
:10265C0000496E69742052533438350053746172DA
:10266C0074206C6F6F702E2E2E0052656420757066
:10267C000052656420646F776E00477265656E204A
:10268C00757000477265656E20646F776E00426CE2
:10269C00756520757000426C756520646F776E00EF
:1026AC004368616E6E656C3A20002D2D2D005265CD
:1026BC006420616464005265642073756200477223
:1026CC0065656E2061646400477265656E20737584
:1026DC006200426C75652061646400426C75652013
:1026EC00737562002000D50300000600050003008E
:1026FC000200260200000000BC046311A204810445
:10270C007F056E0500000000CB06C006D4067E08CF
:10271C003307C806CA0600000000BB106311511035
:06272C0082106210AB10E8
:00000001FF
